{
  "_format": "hh-sol-artifact-1",
  "contractName": "ClawCardNFT",
  "sourceName": "contracts/ClawCardNFT.sol",
  "abi": [
    {
      "inputs": [
        {
          "internalType": "string",
          "name": "_baseTokenURI",
          "type": "string"
        }
      ],
      "stateMutability": "nonpayable",
      "type": "constructor"
    },
    {
      "inputs": [],
      "name": "AgentIdInUse",
      "type": "error"
    },
    {
      "inputs": [],
      "name": "AlreadyMinted",
      "type": "error"
    },
    {
      "inputs": [
        {
          "internalType": "address",
          "name": "sender",
          "type": "address"
        },
        {
          "internalType": "uint256",
          "name": "tokenId",
          "type": "uint256"
        },
        {
          "internalType": "address",
          "name": "owner",
          "type": "address"
        }
      ],
      "name": "ERC721IncorrectOwner",
      "type": "error"
    },
    {
      "inputs": [
        {
          "internalType": "address",
          "name": "operator",
          "type": "address"
        },
        {
          "internalType": "uint256",
          "name": "tokenId",
          "type": "uint256"
        }
      ],
      "name": "ERC721InsufficientApproval",
      "type": "error"
    },
    {
      "inputs": [
        {
          "internalType": "address",
          "name": "approver",
          "type": "address"
        }
      ],
      "name": "ERC721InvalidApprover",
      "type": "error"
    },
    {
      "inputs": [
        {
          "internalType": "address",
          "name": "operator",
          "type": "address"
        }
      ],
      "name": "ERC721InvalidOperator",
      "type": "error"
    },
    {
      "inputs": [
        {
          "internalType": "address",
          "name": "owner",
          "type": "address"
        }
      ],
      "name": "ERC721InvalidOwner",
      "type": "error"
    },
    {
      "inputs": [
        {
          "internalType": "address",
          "name": "receiver",
          "type": "address"
        }
      ],
      "name": "ERC721InvalidReceiver",
      "type": "error"
    },
    {
      "inputs": [
        {
          "internalType": "address",
          "name": "sender",
          "type": "address"
        }
      ],
      "name": "ERC721InvalidSender",
      "type": "error"
    },
    {
      "inputs": [
        {
          "internalType": "uint256",
          "name": "tokenId",
          "type": "uint256"
        }
      ],
      "name": "ERC721NonexistentToken",
      "type": "error"
    },
    {
      "inputs": [],
      "name": "InvalidAgentId",
      "type": "error"
    },
    {
      "inputs": [],
      "name": "InvalidBaseURI",
      "type": "error"
    },
    {
      "inputs": [],
      "name": "MaxSupplyReached",
      "type": "error"
    },
    {
      "inputs": [],
      "name": "NotTokenOwner",
      "type": "error"
    },
    {
      "inputs": [
        {
          "internalType": "address",
          "name": "owner",
          "type": "address"
        }
      ],
      "name": "OwnableInvalidOwner",
      "type": "error"
    },
    {
      "inputs": [
        {
          "internalType": "address",
          "name": "account",
          "type": "address"
        }
      ],
      "name": "OwnableUnauthorizedAccount",
      "type": "error"
    },
    {
      "inputs": [],
      "name": "TokenDoesNotExist",
      "type": "error"
    },
    {
      "inputs": [],
      "name": "TokenIsSoulbound",
      "type": "error"
    },
    {
      "inputs": [],
      "name": "TransfersDisabled",
      "type": "error"
    },
    {
      "anonymous": false,
      "inputs": [
        {
          "indexed": true,
          "internalType": "uint256",
          "name": "tokenId",
          "type": "uint256"
        },
        {
          "indexed": false,
          "internalType": "string",
          "name": "oldAgentId",
          "type": "string"
        },
        {
          "indexed": false,
          "internalType": "string",
          "name": "newAgentId",
          "type": "string"
        }
      ],
      "name": "AgentIdUpdated",
      "type": "event"
    },
    {
      "anonymous": false,
      "inputs": [
        {
          "indexed": true,
          "internalType": "address",
          "name": "owner",
          "type": "address"
        },
        {
          "indexed": true,
          "internalType": "address",
          "name": "approved",
          "type": "address"
        },
        {
          "indexed": true,
          "internalType": "uint256",
          "name": "tokenId",
          "type": "uint256"
        }
      ],
      "name": "Approval",
      "type": "event"
    },
    {
      "anonymous": false,
      "inputs": [
        {
          "indexed": true,
          "internalType": "address",
          "name": "owner",
          "type": "address"
        },
        {
          "indexed": true,
          "internalType": "address",
          "name": "operator",
          "type": "address"
        },
        {
          "indexed": false,
          "internalType": "bool",
          "name": "approved",
          "type": "bool"
        }
      ],
      "name": "ApprovalForAll",
      "type": "event"
    },
    {
      "anonymous": false,
      "inputs": [
        {
          "indexed": false,
          "internalType": "string",
          "name": "newBaseURI",
          "type": "string"
        }
      ],
      "name": "BaseURIUpdated",
      "type": "event"
    },
    {
      "anonymous": false,
      "inputs": [
        {
          "indexed": true,
          "internalType": "address",
          "name": "wallet",
          "type": "address"
        },
        {
          "indexed": true,
          "internalType": "uint256",
          "name": "tokenId",
          "type": "uint256"
        },
        {
          "indexed": false,
          "internalType": "string",
          "name": "agentId",
          "type": "string"
        }
      ],
      "name": "CardBurned",
      "type": "event"
    },
    {
      "anonymous": false,
      "inputs": [
        {
          "indexed": true,
          "internalType": "address",
          "name": "wallet",
          "type": "address"
        },
        {
          "indexed": true,
          "internalType": "uint256",
          "name": "tokenId",
          "type": "uint256"
        },
        {
          "indexed": false,
          "internalType": "string",
          "name": "agentId",
          "type": "string"
        },
        {
          "indexed": false,
          "internalType": "bool",
          "name": "isSoulbound",
          "type": "bool"
        }
      ],
      "name": "CardMinted",
      "type": "event"
    },
    {
      "anonymous": false,
      "inputs": [
        {
          "indexed": true,
          "internalType": "address",
          "name": "previousOwner",
          "type": "address"
        },
        {
          "indexed": true,
          "internalType": "address",
          "name": "newOwner",
          "type": "address"
        }
      ],
      "name": "OwnershipTransferred",
      "type": "event"
    },
    {
      "anonymous": false,
      "inputs": [
        {
          "indexed": true,
          "internalType": "uint256",
          "name": "tokenId",
          "type": "uint256"
        }
      ],
      "name": "SoulboundLocked",
      "type": "event"
    },
    {
      "anonymous": false,
      "inputs": [
        {
          "indexed": true,
          "internalType": "address",
          "name": "from",
          "type": "address"
        },
        {
          "indexed": true,
          "internalType": "address",
          "name": "to",
          "type": "address"
        },
        {
          "indexed": true,
          "internalType": "uint256",
          "name": "tokenId",
          "type": "uint256"
        }
      ],
      "name": "Transfer",
      "type": "event"
    },
    {
      "anonymous": false,
      "inputs": [
        {
          "indexed": false,
          "internalType": "bool",
          "name": "enabled",
          "type": "bool"
        }
      ],
      "name": "TransfersToggled",
      "type": "event"
    },
    {
      "inputs": [],
      "name": "MAX_SUPPLY",
      "outputs": [
        {
          "internalType": "uint256",
          "name": "",
          "type": "uint256"
        }
      ],
      "stateMutability": "view",
      "type": "function"
    },
    {
      "inputs": [
        {
          "internalType": "address",
          "name": "to",
          "type": "address"
        },
        {
          "internalType": "string",
          "name": "agentId",
          "type": "string"
        },
        {
          "internalType": "bool",
          "name": "makeSoulbound",
          "type": "bool"
        }
      ],
      "name": "adminMint",
      "outputs": [],
      "stateMutability": "nonpayable",
      "type": "function"
    },
    {
      "inputs": [
        {
          "internalType": "string",
          "name": "",
          "type": "string"
        }
      ],
      "name": "agentIdToToken",
      "outputs": [
        {
          "internalType": "uint256",
          "name": "",
          "type": "uint256"
        }
      ],
      "stateMutability": "view",
      "type": "function"
    },
    {
      "inputs": [
        {
          "internalType": "string",
          "name": "",
          "type": "string"
        }
      ],
      "name": "agentIdUsed",
      "outputs": [
        {
          "internalType": "bool",
          "name": "",
          "type": "bool"
        }
      ],
      "stateMutability": "view",
      "type": "function"
    },
    {
      "inputs": [
        {
          "internalType": "address",
          "name": "to",
          "type": "address"
        },
        {
          "internalType": "uint256",
          "name": "tokenId",
          "type": "uint256"
        }
      ],
      "name": "approve",
      "outputs": [],
      "stateMutability": "nonpayable",
      "type": "function"
    },
    {
      "inputs": [
        {
          "internalType": "address",
          "name": "owner",
          "type": "address"
        }
      ],
      "name": "balanceOf",
      "outputs": [
        {
          "internalType": "uint256",
          "name": "",
          "type": "uint256"
        }
      ],
      "stateMutability": "view",
      "type": "function"
    },
    {
      "inputs": [],
      "name": "baseTokenURI",
      "outputs": [
        {
          "internalType": "string",
          "name": "",
          "type": "string"
        }
      ],
      "stateMutability": "view",
      "type": "function"
    },
    {
      "inputs": [
        {
          "internalType": "uint256",
          "name": "tokenId",
          "type": "uint256"
        }
      ],
      "name": "burn",
      "outputs": [],
      "stateMutability": "nonpayable",
      "type": "function"
    },
    {
      "inputs": [
        {
          "internalType": "uint256",
          "name": "tokenId",
          "type": "uint256"
        }
      ],
      "name": "getApproved",
      "outputs": [
        {
          "internalType": "address",
          "name": "",
          "type": "address"
        }
      ],
      "stateMutability": "view",
      "type": "function"
    },
    {
      "inputs": [
        {
          "internalType": "uint256",
          "name": "tokenId",
          "type": "uint256"
        }
      ],
      "name": "getCardInfo",
      "outputs": [
        {
          "internalType": "address",
          "name": "cardOwner",
          "type": "address"
        },
        {
          "internalType": "string",
          "name": "agentId",
          "type": "string"
        },
        {
          "internalType": "bool",
          "name": "isSoulbound",
          "type": "bool"
        },
        {
          "internalType": "bool",
          "name": "transferable",
          "type": "bool"
        }
      ],
      "stateMutability": "view",
      "type": "function"
    },
    {
      "inputs": [
        {
          "internalType": "string",
          "name": "agentId",
          "type": "string"
        }
      ],
      "name": "getTokenByAgentId",
      "outputs": [
        {
          "internalType": "uint256",
          "name": "",
          "type": "uint256"
        }
      ],
      "stateMutability": "view",
      "type": "function"
    },
    {
      "inputs": [
        {
          "internalType": "address",
          "name": "",
          "type": "address"
        }
      ],
      "name": "hasMinted",
      "outputs": [
        {
          "internalType": "bool",
          "name": "",
          "type": "bool"
        }
      ],
      "stateMutability": "view",
      "type": "function"
    },
    {
      "inputs": [
        {
          "internalType": "string",
          "name": "agentId",
          "type": "string"
        }
      ],
      "name": "isAgentIdAvailable",
      "outputs": [
        {
          "internalType": "bool",
          "name": "",
          "type": "bool"
        }
      ],
      "stateMutability": "view",
      "type": "function"
    },
    {
      "inputs": [
        {
          "internalType": "address",
          "name": "owner",
          "type": "address"
        },
        {
          "internalType": "address",
          "name": "operator",
          "type": "address"
        }
      ],
      "name": "isApprovedForAll",
      "outputs": [
        {
          "internalType": "bool",
          "name": "",
          "type": "bool"
        }
      ],
      "stateMutability": "view",
      "type": "function"
    },
    {
      "inputs": [
        {
          "internalType": "uint256",
          "name": "tokenId",
          "type": "uint256"
        }
      ],
      "name": "lockAsSoulbound",
      "outputs": [],
      "stateMutability": "nonpayable",
      "type": "function"
    },
    {
      "inputs": [
        {
          "internalType": "string",
          "name": "agentId",
          "type": "string"
        },
        {
          "internalType": "bool",
          "name": "makeSoulbound",
          "type": "bool"
        }
      ],
      "name": "mint",
      "outputs": [],
      "stateMutability": "nonpayable",
      "type": "function"
    },
    {
      "inputs": [],
      "name": "name",
      "outputs": [
        {
          "internalType": "string",
          "name": "",
          "type": "string"
        }
      ],
      "stateMutability": "view",
      "type": "function"
    },
    {
      "inputs": [],
      "name": "owner",
      "outputs": [
        {
          "internalType": "address",
          "name": "",
          "type": "address"
        }
      ],
      "stateMutability": "view",
      "type": "function"
    },
    {
      "inputs": [
        {
          "internalType": "uint256",
          "name": "tokenId",
          "type": "uint256"
        }
      ],
      "name": "ownerOf",
      "outputs": [
        {
          "internalType": "address",
          "name": "",
          "type": "address"
        }
      ],
      "stateMutability": "view",
      "type": "function"
    },
    {
      "inputs": [],
      "name": "renounceOwnership",
      "outputs": [],
      "stateMutability": "nonpayable",
      "type": "function"
    },
    {
      "inputs": [
        {
          "internalType": "address",
          "name": "from",
          "type": "address"
        },
        {
          "internalType": "address",
          "name": "to",
          "type": "address"
        },
        {
          "internalType": "uint256",
          "name": "tokenId",
          "type": "uint256"
        }
      ],
      "name": "safeTransferFrom",
      "outputs": [],
      "stateMutability": "nonpayable",
      "type": "function"
    },
    {
      "inputs": [
        {
          "internalType": "address",
          "name": "from",
          "type": "address"
        },
        {
          "internalType": "address",
          "name": "to",
          "type": "address"
        },
        {
          "internalType": "uint256",
          "name": "tokenId",
          "type": "uint256"
        },
        {
          "internalType": "bytes",
          "name": "data",
          "type": "bytes"
        }
      ],
      "name": "safeTransferFrom",
      "outputs": [],
      "stateMutability": "nonpayable",
      "type": "function"
    },
    {
      "inputs": [
        {
          "internalType": "address",
          "name": "operator",
          "type": "address"
        },
        {
          "internalType": "bool",
          "name": "approved",
          "type": "bool"
        }
      ],
      "name": "setApprovalForAll",
      "outputs": [],
      "stateMutability": "nonpayable",
      "type": "function"
    },
    {
      "inputs": [
        {
          "internalType": "string",
          "name": "newBaseURI",
          "type": "string"
        }
      ],
      "name": "setBaseURI",
      "outputs": [],
      "stateMutability": "nonpayable",
      "type": "function"
    },
    {
      "inputs": [
        {
          "internalType": "bool",
          "name": "enabled",
          "type": "bool"
        }
      ],
      "name": "setTransfersEnabled",
      "outputs": [],
      "stateMutability": "nonpayable",
      "type": "function"
    },
    {
      "inputs": [
        {
          "internalType": "uint256",
          "name": "",
          "type": "uint256"
        }
      ],
      "name": "soulbound",
      "outputs": [
        {
          "internalType": "bool",
          "name": "",
          "type": "bool"
        }
      ],
      "stateMutability": "view",
      "type": "function"
    },
    {
      "inputs": [
        {
          "internalType": "bytes4",
          "name": "interfaceId",
          "type": "bytes4"
        }
      ],
      "name": "supportsInterface",
      "outputs": [
        {
          "internalType": "bool",
          "name": "",
          "type": "bool"
        }
      ],
      "stateMutability": "view",
      "type": "function"
    },
    {
      "inputs": [],
      "name": "symbol",
      "outputs": [
        {
          "internalType": "string",
          "name": "",
          "type": "string"
        }
      ],
      "stateMutability": "view",
      "type": "function"
    },
    {
      "inputs": [
        {
          "internalType": "uint256",
          "name": "",
          "type": "uint256"
        }
      ],
      "name": "tokenAgentId",
      "outputs": [
        {
          "internalType": "string",
          "name": "",
          "type": "string"
        }
      ],
      "stateMutability": "view",
      "type": "function"
    },
    {
      "inputs": [
        {
          "internalType": "uint256",
          "name": "tokenId",
          "type": "uint256"
        }
      ],
      "name": "tokenURI",
      "outputs": [
        {
          "internalType": "string",
          "name": "",
          "type": "string"
        }
      ],
      "stateMutability": "view",
      "type": "function"
    },
    {
      "inputs": [],
      "name": "totalSupply",
      "outputs": [
        {
          "internalType": "uint256",
          "name": "",
          "type": "uint256"
        }
      ],
      "stateMutability": "view",
      "type": "function"
    },
    {
      "inputs": [
        {
          "internalType": "address",
          "name": "from",
          "type": "address"
        },
        {
          "internalType": "address",
          "name": "to",
          "type": "address"
        },
        {
          "internalType": "uint256",
          "name": "tokenId",
          "type": "uint256"
        }
      ],
      "name": "transferFrom",
      "outputs": [],
      "stateMutability": "nonpayable",
      "type": "function"
    },
    {
      "inputs": [
        {
          "internalType": "address",
          "name": "newOwner",
          "type": "address"
        }
      ],
      "name": "transferOwnership",
      "outputs": [],
      "stateMutability": "nonpayable",
      "type": "function"
    },
    {
      "inputs": [],
      "name": "transfersEnabled",
      "outputs": [
        {
          "internalType": "bool",
          "name": "",
          "type": "bool"
        }
      ],
      "stateMutability": "view",
      "type": "function"
    },
    {
      "inputs": [
        {
          "internalType": "uint256",
          "name": "tokenId",
          "type": "uint256"
        },
        {
          "internalType": "string",
          "name": "newAgentId",
          "type": "string"
        }
      ],
      "name": "updateAgentId",
      "outputs": [],
      "stateMutability": "nonpayable",
      "type": "function"
    },
    {
      "inputs": [
        {
          "internalType": "address",
          "name": "",
          "type": "address"
        }
      ],
      "name": "walletToToken",
      "outputs": [
        {
          "internalType": "uint256",
          "name": "",
          "type": "uint256"
        }
      ],
      "stateMutability": "view",
      "type": "function"
    }
  ],
  "bytecode": "0x6080604052600f805460ff191660011790553480156200001e57600080fd5b50604051620026c3380380620026c383398101604081905262000041916200018a565b336040518060400160405280600e81526020016d10db185dd51c9d5cdd0810d85c9960921b81525060405180604001604052806004815260200163434c415760e01b8152508160009081620000979190620002ee565b506001620000a68282620002ee565b5050506001600160a01b038116620000d857604051631e4fbdf760e01b81526000600482015260240160405180910390fd5b620000e38162000122565b508051600003620001075760405163cc52148360e01b815260040160405180910390fd5b6008620001158282620002ee565b50506001600755620003ba565b600680546001600160a01b038381166001600160a01b0319831681179093556040519116919082907f8be0079c531659141344cd1fd0a4f28419497f9722a3daafe3b4186f6b6457e090600090a35050565b634e487b7160e01b600052604160045260246000fd5b600060208083850312156200019e57600080fd5b82516001600160401b0380821115620001b657600080fd5b818501915085601f830112620001cb57600080fd5b815181811115620001e057620001e062000174565b604051601f8201601f19908116603f011681019083821181831017156200020b576200020b62000174565b8160405282815288868487010111156200022457600080fd5b600093505b8284101562000248578484018601518185018701529285019262000229565b600086848301015280965050505050505092915050565b600181811c908216806200027457607f821691505b6020821081036200029557634e487b7160e01b600052602260045260246000fd5b50919050565b601f821115620002e957600081815260208120601f850160051c81016020861015620002c45750805b601f850160051c820191505b81811015620002e557828155600101620002d0565b5050505b505050565b81516001600160401b038111156200030a576200030a62000174565b62000322816200031b84546200025f565b846200029b565b602080601f8311600181146200035a5760008415620003415750858301515b600019600386901b1c1916600185901b178555620002e5565b600085815260208120601f198616915b828110156200038b578886015182559484019460019091019084016200036a565b5085821015620003aa5787850151600019600388901b60f8161c191681555b5050505050600190811b01905550565b6122f980620003ca6000396000f3fe608060405234801561001057600080fd5b506004361061021c5760003560e01c806368fb99f111610125578063970129be116100ad578063c87b56dd1161007c578063c87b56dd146104d0578063ce04e2b7146104e3578063d547cfb714610511578063e985e9c514610519578063f2fde38b1461052c57600080fd5b8063970129be1461047a578063a22cb4651461049d578063b88d4fde146104b0578063bef97c87146104c357600080fd5b80637a181597116100f45780637a181597146104185780638da5cb5b1461043b5780638df459c91461044c57806394cced5c1461045f57806395d89b411461047257600080fd5b806368fb99f1146103bf57806370a08231146103ea57806370f43e51146103fd578063715018a61461041057600080fd5b80633514dd65116101a857806342966c681161017757806342966c681461036057806355f804b3146103735780635c0ab380146103865780635f257f29146103995780636352211e146103ac57600080fd5b80633514dd651461030457806338e21cce146103175780633d52bd091461033a57806342842e0e1461034d57600080fd5b8063095ea7b3116101ef578063095ea7b3146102b757806318160ddd146102cc57806323b872dd146102d457806326b9ce13146102e757806332cb6b0c146102fa57600080fd5b806301ffc9a71461022157806303a1b24e1461024957806306fdde0314610277578063081812fc1461028c575b600080fd5b61023461022f366004611a94565b61053f565b60405190151581526020015b60405180910390f35b610269610257366004611ad4565b60096020526000908152604090205481565b604051908152602001610240565b61027f610591565b6040516102409190611b3f565b61029f61029a366004611b52565b610623565b6040516001600160a01b039091168152602001610240565b6102ca6102c5366004611b6b565b61064c565b005b61026961068a565b6102ca6102e2366004611b95565b6106a0565b6102ca6102f5366004611be1565b610730565b610269620f424081565b610269610312366004611c45565b61077f565b610234610325366004611ad4565b600a6020526000908152604090205460ff1681565b6102ca610348366004611c87565b6107ec565b6102ca61035b366004611b95565b610800565b6102ca61036e366004611b52565b610820565b6102ca610381366004611c45565b6109e6565b6102ca610394366004611b52565b610a5b565b6102ca6103a7366004611cec565b610af3565b61029f6103ba366004611b52565b610aff565b6102696103cd366004611dcc565b8051602081830181018051600e8252928201919093012091525481565b6102696103f8366004611ad4565b610b0a565b6102ca61040b366004611e15565b610b52565b6102ca610db0565b610234610426366004611b52565b600b6020526000908152604090205460ff1681565b6006546001600160a01b031661029f565b61027f61045a366004611b52565b610dc4565b61023461046d366004611c45565b610e5e565b61027f610e8e565b61048d610488366004611b52565b610e9d565b6040516102409493929190611e61565b6102ca6104ab366004611e9d565b610f7a565b6102ca6104be366004611ed0565b610f85565b600f546102349060ff1681565b61027f6104de366004611b52565b610f9d565b6102346104f1366004611dcc565b8051602081830181018051600d8252928201919093012091525460ff1681565b61027f61106d565b610234610527366004611f4c565b61107a565b6102ca61053a366004611ad4565b6110a8565b60006001600160e01b031982166380ac58cd60e01b148061057057506001600160e01b03198216635b5e139f60e01b145b8061058b57506301ffc9a760e01b6001600160e01b03198316145b92915050565b6060600080546105a090611f76565b80601f01602080910402602001604051908101604052809291908181526020018280546105cc90611f76565b80156106195780601f106105ee57610100808354040283529160200191610619565b820191906000526020600020905b8154815290600101906020018083116105fc57829003601f168201915b5050505050905090565b600061062e826110e6565b506000828152600460205260409020546001600160a01b031661058b565b6000818152600b602052604090205460ff161561067c576040516358b2164f60e11b815260040160405180910390fd5b610686828261111f565b5050565b6000600160075461069b9190611fc6565b905090565b6001600160a01b0382166106cf57604051633250574960e11b8152600060048201526024015b60405180910390fd5b60006106dc83833361112a565b9050836001600160a01b0316816001600160a01b03161461072a576040516364283d7b60e01b81526001600160a01b03808616600483015260248201849052821660448201526064016106c6565b50505050565b61073861124f565b600f805460ff19168215159081179091556040519081527fe1965432af4c9923f6ebb98f1721262967cfa6178008742d23041dc8ee74ee8f9060200160405180910390a150565b6000600d8383604051610793929190611fd9565b9081526040519081900360200190205460ff166107c35760405163e6394a7760e01b815260040160405180910390fd5b600e83836040516107d5929190611fd9565b908152602001604051809103902054905092915050565b6107f461124f565b61072a8484848461127c565b61081b83838360405180602001604052806000815250610f85565b505050565b803361082b82610aff565b6001600160a01b031614610852576040516359dc379f60e01b815260040160405180910390fd5b600061085d83610aff565b6000848152600c602052604081208054929350909161087b90611f76565b80601f01602080910402602001604051908101604052809291908181526020018280546108a790611f76565b80156108f45780601f106108c9576101008083540402835291602001916108f4565b820191906000526020600020905b8154815290600101906020018083116108d757829003601f168201915b505050506001600160a01b0384166000908152600960209081526040808320839055600a8252808320805460ff19908116909155898452600b835281842080549091169055600c909152812092935061094e929150611a30565b600d8160405161095e9190611fe9565b908152604051908190036020018120805460ff19169055600e90610983908390611fe9565b90815260200160405180910390206000905561099e8461146c565b83826001600160a01b03167fcb7d10e9f8e3fb38cc1c7bff7b7b10771631f10d783bad9859b88462dc9a087a836040516109d89190611b3f565b60405180910390a350505050565b6109ee61124f565b6000819003610a105760405163cc52148360e01b815260040160405180910390fd5b6008610a1d82848361204b565b507f6741b2fc379fad678116fe3d4d4b9a1a184ab53ba36b86ad0fa66340b1ab41ad8282604051610a4f929190612134565b60405180910390a15050565b8033610a6682610aff565b6001600160a01b031614610a8d576040516359dc379f60e01b815260040160405180910390fd5b6000828152600b602052604090205460ff1661068657610aaf600083336114a7565b6000828152600b6020526040808220805460ff191660011790555183917feaf2392aed8d8575ec064f9bc1ee8fe3cbd3344d1fabc6d2b0c57a1abacef54d91a25050565b61081b3384848461127c565b600061058b826110e6565b60006001600160a01b038216610b36576040516322718ad960e21b8152600060048201526024016106c6565b506001600160a01b031660009081526003602052604090205490565b8233610b5d82610aff565b6001600160a01b031614610b84576040516359dc379f60e01b815260040160405180910390fd5b6000848152600b602052604090205460ff1615610bb4576040516358b2164f60e11b815260040160405180910390fd5b6000829003610bd65760405163e6394a7760e01b815260040160405180910390fd5b600d8383604051610be8929190611fd9565b9081526040519081900360200190205460ff1615610c19576040516327c083ed60e01b815260040160405180910390fd5b6000848152600c602052604081208054610c3290611f76565b80601f0160208091040260200160405190810160405280929190818152602001828054610c5e90611f76565b8015610cab5780601f10610c8057610100808354040283529160200191610cab565b820191906000526020600020905b815481529060010190602001808311610c8e57829003601f168201915b50505050509050600d81604051610cc29190611fe9565b908152604051908190036020018120805460ff19169055600e90610ce7908390611fe9565b9081526040805160209281900383019020600090819055878152600c9092529020610d1384868361204b565b506001600d8585604051610d28929190611fd9565b908152604051908190036020018120805492151560ff19909316929092179091558590600e90610d5b9087908790611fd9565b908152602001604051809103902081905550847f32732fb0eb11212b1e21d80a810d1993298e454fba5175f4aa3dba8487b43b47828686604051610da193929190612148565b60405180910390a25050505050565b610db861124f565b610dc260006114b4565b565b600c6020526000908152604090208054610ddd90611f76565b80601f0160208091040260200160405190810160405280929190818152602001828054610e0990611f76565b8015610e565780601f10610e2b57610100808354040283529160200191610e56565b820191906000526020600020905b815481529060010190602001808311610e3957829003601f168201915b505050505081565b6000600d8383604051610e72929190611fd9565b9081526040519081900360200190205460ff1615905092915050565b6060600180546105a090611f76565b60006060600080610ead85610aff565b6000868152600c60205260409020805491955090610eca90611f76565b80601f0160208091040260200160405190810160405280929190818152602001828054610ef690611f76565b8015610f435780601f10610f1857610100808354040283529160200191610f43565b820191906000526020600020905b815481529060010190602001808311610f2657829003601f168201915b5050506000888152600b60205260409020549295505060ff90911692505081158015610f715750600f5460ff165b90509193509193565b610686338383611506565b610f908484846106a0565b61072a33858585856115a5565b6060610fa8826110e6565b506000828152600c602052604081208054610fc290611f76565b80601f0160208091040260200160405190810160405280929190818152602001828054610fee90611f76565b801561103b5780601f106110105761010080835404028352916020019161103b565b820191906000526020600020905b81548152906001019060200180831161101e57829003601f168201915b50505050509050600881604051602001611056929190612178565b604051602081830303815290604052915050919050565b60088054610ddd90611f76565b6001600160a01b03918216600090815260056020908152604080832093909416825291909152205460ff1690565b6110b061124f565b6001600160a01b0381166110da57604051631e4fbdf760e01b8152600060048201526024016106c6565b6110e3816114b4565b50565b6000818152600260205260408120546001600160a01b03168061058b57604051637e27328960e01b8152600481018490526024016106c6565b6106868282336114a7565b6000828152600260205260408120546001600160a01b0316801580159061115957506001600160a01b03851615155b1561123b576000848152600b602052604090205460ff161561118e576040516358b2164f60e11b815260040160405180910390fd5b600f5460ff166111b157604051638574adcf60e01b815260040160405180910390fd5b6001600160a01b0385166000908152600a602052604090205460ff16156111eb57604051631bbdf5c560e31b815260040160405180910390fd5b6001600160a01b038082166000908152600960208181526040808420849055600a808352818520805460ff19908116909155958b1685529282528084208990559190529020805490911660011790555b6112468585856116d0565b95945050505050565b6006546001600160a01b03163314610dc25760405163118cdaa760e01b81523360048201526024016106c6565b6001600160a01b0384166000908152600a602052604090205460ff16156112b657604051631bbdf5c560e31b815260040160405180910390fd5b60008290036112d85760405163e6394a7760e01b815260040160405180910390fd5b600d83836040516112ea929190611fd9565b9081526040519081900360200190205460ff161561131b576040516327c083ed60e01b815260040160405180910390fd5b620f424060075411156113415760405163d05cb60960e01b815260040160405180910390fd5b600780546000918261135283612234565b91905055905061136285826117c9565b6001600160a01b0385166000908152600960209081526040808320849055600a8252808320805460ff19166001179055838352600c90915290206113a784868361204b565b506001600d85856040516113bc929190611fd9565b908152604051908190036020018120805492151560ff19909316929092179091558190600e906113ef9087908790611fd9565b90815260405190819003602001902055811561141f576000818152600b60205260409020805460ff191660011790555b80856001600160a01b03167f625b99a892bc5debda01d378a6bd97076fc654d0f95f5a1be8098ecf5fc7e03c86868660405161145d9392919061224d565b60405180910390a35050505050565b600061147b600083600061112a565b90506001600160a01b03811661068657604051637e27328960e01b8152600481018390526024016106c6565b61081b83838360016117e3565b600680546001600160a01b038381166001600160a01b0319831681179093556040519116919082907f8be0079c531659141344cd1fd0a4f28419497f9722a3daafe3b4186f6b6457e090600090a35050565b6001600160a01b03821661153857604051630b61174360e31b81526001600160a01b03831660048201526024016106c6565b6001600160a01b03838116600081815260056020908152604080832094871680845294825291829020805460ff191686151590811790915591519182527f17307eab39ab6107e8899845ad3d59bd9653f200f220920489ca2b5937696c31910160405180910390a3505050565b6001600160a01b0383163b156116c957604051630a85bd0160e11b81526001600160a01b0384169063150b7a02906115e7908890889087908790600401612273565b6020604051808303816000875af1925050508015611622575060408051601f3d908101601f1916820190925261161f918101906122a6565b60015b61168b573d808015611650576040519150601f19603f3d011682016040523d82523d6000602084013e611655565b606091505b50805160000361168357604051633250574960e11b81526001600160a01b03851660048201526024016106c6565b805160208201fd5b6001600160e01b03198116630a85bd0160e11b146116c757604051633250574960e11b81526001600160a01b03851660048201526024016106c6565b505b5050505050565b6000828152600260205260408120546001600160a01b03908116908316156116fd576116fd8184866118e9565b6001600160a01b0381161561173b5761171a6000856000806117e3565b6001600160a01b038116600090815260036020526040902080546000190190555b6001600160a01b0385161561176a576001600160a01b0385166000908152600360205260409020805460010190555b60008481526002602052604080822080546001600160a01b0319166001600160a01b0389811691821790925591518793918516917fddf252ad1be2c89b69c2b068fc378daa952ba7f163c4a11628f55a4df523b3ef91a4949350505050565b61068682826040518060200160405280600081525061194d565b80806117f757506001600160a01b03821615155b156118b9576000611807846110e6565b90506001600160a01b038316158015906118335750826001600160a01b0316816001600160a01b031614155b80156118465750611844818461107a565b155b1561186f5760405163a9fbf51f60e01b81526001600160a01b03841660048201526024016106c6565b81156118b75783856001600160a01b0316826001600160a01b03167f8c5be1e5ebec7d5bd14f71427d1e84f3dd0314c0f7b2291e5b200ac8c7c3b92560405160405180910390a45b505b5050600090815260046020526040902080546001600160a01b0319166001600160a01b0392909216919091179055565b6118f4838383611965565b61081b576001600160a01b03831661192257604051637e27328960e01b8152600481018290526024016106c6565b60405163177e802f60e01b81526001600160a01b0383166004820152602481018290526044016106c6565b61195783836119cb565b61081b3360008585856115a5565b60006001600160a01b038316158015906119c35750826001600160a01b0316846001600160a01b0316148061199f575061199f848461107a565b806119c357506000828152600460205260409020546001600160a01b038481169116145b949350505050565b6001600160a01b0382166119f557604051633250574960e11b8152600060048201526024016106c6565b6000611a038383600061112a565b90506001600160a01b0381161561081b576040516339e3563760e11b8152600060048201526024016106c6565b508054611a3c90611f76565b6000825580601f10611a4c575050565b601f0160209004906000526020600020908101906110e391905b80821115611a7a5760008155600101611a66565b5090565b6001600160e01b0319811681146110e357600080fd5b600060208284031215611aa657600080fd5b8135611ab181611a7e565b9392505050565b80356001600160a01b0381168114611acf57600080fd5b919050565b600060208284031215611ae657600080fd5b611ab182611ab8565b60005b83811015611b0a578181015183820152602001611af2565b50506000910152565b60008151808452611b2b816020860160208601611aef565b601f01601f19169290920160200192915050565b602081526000611ab16020830184611b13565b600060208284031215611b6457600080fd5b5035919050565b60008060408385031215611b7e57600080fd5b611b8783611ab8565b946020939093013593505050565b600080600060608486031215611baa57600080fd5b611bb384611ab8565b9250611bc160208501611ab8565b9150604084013590509250925092565b80358015158114611acf57600080fd5b600060208284031215611bf357600080fd5b611ab182611bd1565b60008083601f840112611c0e57600080fd5b50813567ffffffffffffffff811115611c2657600080fd5b602083019150836020828501011115611c3e57600080fd5b9250929050565b60008060208385031215611c5857600080fd5b823567ffffffffffffffff811115611c6f57600080fd5b611c7b85828601611bfc565b90969095509350505050565b60008060008060608587031215611c9d57600080fd5b611ca685611ab8565b9350602085013567ffffffffffffffff811115611cc257600080fd5b611cce87828801611bfc565b9094509250611ce1905060408601611bd1565b905092959194509250565b600080600060408486031215611d0157600080fd5b833567ffffffffffffffff811115611d1857600080fd5b611d2486828701611bfc565b9094509250611d37905060208501611bd1565b90509250925092565b634e487b7160e01b600052604160045260246000fd5b600067ffffffffffffffff80841115611d7157611d71611d40565b604051601f8501601f19908116603f01168101908282118183101715611d9957611d99611d40565b81604052809350858152868686011115611db257600080fd5b858560208301376000602087830101525050509392505050565b600060208284031215611dde57600080fd5b813567ffffffffffffffff811115611df557600080fd5b8201601f81018413611e0657600080fd5b6119c384823560208401611d56565b600080600060408486031215611e2a57600080fd5b83359250602084013567ffffffffffffffff811115611e4857600080fd5b611e5486828701611bfc565b9497909650939450505050565b6001600160a01b0385168152608060208201819052600090611e8590830186611b13565b93151560408301525090151560609091015292915050565b60008060408385031215611eb057600080fd5b611eb983611ab8565b9150611ec760208401611bd1565b90509250929050565b60008060008060808587031215611ee657600080fd5b611eef85611ab8565b9350611efd60208601611ab8565b925060408501359150606085013567ffffffffffffffff811115611f2057600080fd5b8501601f81018713611f3157600080fd5b611f4087823560208401611d56565b91505092959194509250565b60008060408385031215611f5f57600080fd5b611f6883611ab8565b9150611ec760208401611ab8565b600181811c90821680611f8a57607f821691505b602082108103611faa57634e487b7160e01b600052602260045260246000fd5b50919050565b634e487b7160e01b600052601160045260246000fd5b8181038181111561058b5761058b611fb0565b8183823760009101908152919050565b60008251611ffb818460208701611aef565b9190910192915050565b601f82111561081b57600081815260208120601f850160051c8101602086101561202c5750805b601f850160051c820191505b818110156116c757828155600101612038565b67ffffffffffffffff83111561206357612063611d40565b612077836120718354611f76565b83612005565b6000601f8411600181146120ab57600085156120935750838201355b600019600387901b1c1916600186901b1783556116c9565b600083815260209020601f19861690835b828110156120dc57868501358255602094850194600190920191016120bc565b50868210156120f95760001960f88860031b161c19848701351681555b505060018560011b0183555050505050565b81835281816020850137506000828201602090810191909152601f909101601f19169091010190565b6020815260006119c360208301848661210b565b60408152600061215b6040830186611b13565b828103602084015261216e81858761210b565b9695505050505050565b600080845461218681611f76565b6001828116801561219e57600181146121b3576121e2565b60ff19841687528215158302870194506121e2565b8860005260208060002060005b858110156121d95781548a8201529084019082016121c0565b50505082870194505b505050506b2f6170692f6167656e74732f60a01b8152835161220b81600c840160208801611aef565b01612229600c82016d2f636172642f6d6574616461746160901b9052565b601a01949350505050565b60006001820161224657612246611fb0565b5060010190565b60408152600061226160408301858761210b565b90508215156020830152949350505050565b6001600160a01b038581168252841660208201526040810183905260806060820181905260009061216e90830184611b13565b6000602082840312156122b857600080fd5b8151611ab181611a7e56fea264697066735822122081d180fb4491bfba8e0f982f77c9d98ff6de60deb6229e7e25801f3525ee266764736f6c63430008140033",
  "linkReferences": {},
  "deployedLinkReferences": {}
}