{
  "_format": "hh-sol-artifact-1",
  "contractName": "ClawTrustEscrow",
  "sourceName": "contracts/ClawTrustEscrow.sol",
  "abi": [
    {
      "inputs": [
        {
          "internalType": "address",
          "name": "_validationRegistry",
          "type": "address"
        },
        {
          "internalType": "uint256",
          "name": "_platformFeeRate",
          "type": "uint256"
        }
      ],
      "stateMutability": "nonpayable",
      "type": "constructor"
    },
    {
      "inputs": [],
      "name": "EscrowAlreadyExists",
      "type": "error"
    },
    {
      "inputs": [],
      "name": "EscrowNotFound",
      "type": "error"
    },
    {
      "inputs": [],
      "name": "FeeTooHigh",
      "type": "error"
    },
    {
      "inputs": [],
      "name": "InvalidAddress",
      "type": "error"
    },
    {
      "inputs": [],
      "name": "InvalidAmount",
      "type": "error"
    },
    {
      "inputs": [],
      "name": "InvalidGigId",
      "type": "error"
    },
    {
      "inputs": [],
      "name": "InvalidStatus",
      "type": "error"
    },
    {
      "inputs": [
        {
          "internalType": "address",
          "name": "owner",
          "type": "address"
        }
      ],
      "name": "OwnableInvalidOwner",
      "type": "error"
    },
    {
      "inputs": [
        {
          "internalType": "address",
          "name": "account",
          "type": "address"
        }
      ],
      "name": "OwnableUnauthorizedAccount",
      "type": "error"
    },
    {
      "inputs": [],
      "name": "ReentrancyGuardReentrantCall",
      "type": "error"
    },
    {
      "inputs": [
        {
          "internalType": "address",
          "name": "token",
          "type": "address"
        }
      ],
      "name": "SafeERC20FailedOperation",
      "type": "error"
    },
    {
      "inputs": [],
      "name": "SwarmNotApproved",
      "type": "error"
    },
    {
      "inputs": [],
      "name": "TokenNotApproved",
      "type": "error"
    },
    {
      "inputs": [],
      "name": "TransferFailed",
      "type": "error"
    },
    {
      "inputs": [],
      "name": "Unauthorized",
      "type": "error"
    },
    {
      "inputs": [],
      "name": "ValidationExpired",
      "type": "error"
    },
    {
      "anonymous": false,
      "inputs": [
        {
          "indexed": true,
          "internalType": "bytes32",
          "name": "gigId",
          "type": "bytes32"
        },
        {
          "indexed": true,
          "internalType": "address",
          "name": "depositor",
          "type": "address"
        },
        {
          "indexed": false,
          "internalType": "uint256",
          "name": "amount",
          "type": "uint256"
        },
        {
          "indexed": false,
          "internalType": "address",
          "name": "token",
          "type": "address"
        }
      ],
      "name": "EscrowCreated",
      "type": "event"
    },
    {
      "anonymous": false,
      "inputs": [
        {
          "indexed": true,
          "internalType": "bytes32",
          "name": "gigId",
          "type": "bytes32"
        }
      ],
      "name": "EscrowDisputed",
      "type": "event"
    },
    {
      "anonymous": false,
      "inputs": [
        {
          "indexed": true,
          "internalType": "bytes32",
          "name": "gigId",
          "type": "bytes32"
        }
      ],
      "name": "EscrowLocked",
      "type": "event"
    },
    {
      "anonymous": false,
      "inputs": [
        {
          "indexed": true,
          "internalType": "bytes32",
          "name": "gigId",
          "type": "bytes32"
        },
        {
          "indexed": true,
          "internalType": "address",
          "name": "depositor",
          "type": "address"
        },
        {
          "indexed": false,
          "internalType": "uint256",
          "name": "amount",
          "type": "uint256"
        }
      ],
      "name": "EscrowRefunded",
      "type": "event"
    },
    {
      "anonymous": false,
      "inputs": [
        {
          "indexed": true,
          "internalType": "bytes32",
          "name": "gigId",
          "type": "bytes32"
        },
        {
          "indexed": true,
          "internalType": "address",
          "name": "payee",
          "type": "address"
        },
        {
          "indexed": false,
          "internalType": "uint256",
          "name": "amount",
          "type": "uint256"
        },
        {
          "indexed": false,
          "internalType": "uint256",
          "name": "fee",
          "type": "uint256"
        }
      ],
      "name": "EscrowReleased",
      "type": "event"
    },
    {
      "anonymous": false,
      "inputs": [
        {
          "indexed": true,
          "internalType": "address",
          "name": "previousOwner",
          "type": "address"
        },
        {
          "indexed": true,
          "internalType": "address",
          "name": "newOwner",
          "type": "address"
        }
      ],
      "name": "OwnershipTransferred",
      "type": "event"
    },
    {
      "anonymous": false,
      "inputs": [
        {
          "indexed": false,
          "internalType": "uint256",
          "name": "oldRate",
          "type": "uint256"
        },
        {
          "indexed": false,
          "internalType": "uint256",
          "name": "newRate",
          "type": "uint256"
        }
      ],
      "name": "PlatformFeeRateUpdated",
      "type": "event"
    },
    {
      "anonymous": false,
      "inputs": [
        {
          "indexed": true,
          "internalType": "address",
          "name": "token",
          "type": "address"
        },
        {
          "indexed": false,
          "internalType": "bool",
          "name": "approved",
          "type": "bool"
        }
      ],
      "name": "TokenApprovalUpdated",
      "type": "event"
    },
    {
      "inputs": [],
      "name": "ESCROW_TIMEOUT",
      "outputs": [
        {
          "internalType": "uint256",
          "name": "",
          "type": "uint256"
        }
      ],
      "stateMutability": "view",
      "type": "function"
    },
    {
      "inputs": [],
      "name": "FEE_DENOMINATOR",
      "outputs": [
        {
          "internalType": "uint256",
          "name": "",
          "type": "uint256"
        }
      ],
      "stateMutability": "view",
      "type": "function"
    },
    {
      "inputs": [],
      "name": "MAX_FEE_RATE",
      "outputs": [
        {
          "internalType": "uint256",
          "name": "",
          "type": "uint256"
        }
      ],
      "stateMutability": "view",
      "type": "function"
    },
    {
      "inputs": [
        {
          "internalType": "address",
          "name": "",
          "type": "address"
        }
      ],
      "name": "approvedTokens",
      "outputs": [
        {
          "internalType": "bool",
          "name": "",
          "type": "bool"
        }
      ],
      "stateMutability": "view",
      "type": "function"
    },
    {
      "inputs": [
        {
          "internalType": "bytes32",
          "name": "gigId",
          "type": "bytes32"
        }
      ],
      "name": "dispute",
      "outputs": [],
      "stateMutability": "nonpayable",
      "type": "function"
    },
    {
      "inputs": [
        {
          "internalType": "bytes32",
          "name": "",
          "type": "bytes32"
        }
      ],
      "name": "escrowExists",
      "outputs": [
        {
          "internalType": "bool",
          "name": "",
          "type": "bool"
        }
      ],
      "stateMutability": "view",
      "type": "function"
    },
    {
      "inputs": [
        {
          "internalType": "bytes32",
          "name": "",
          "type": "bytes32"
        }
      ],
      "name": "escrows",
      "outputs": [
        {
          "internalType": "bytes32",
          "name": "gigId",
          "type": "bytes32"
        },
        {
          "internalType": "address",
          "name": "depositor",
          "type": "address"
        },
        {
          "internalType": "address",
          "name": "payee",
          "type": "address"
        },
        {
          "internalType": "uint256",
          "name": "amount",
          "type": "uint256"
        },
        {
          "internalType": "address",
          "name": "token",
          "type": "address"
        },
        {
          "internalType": "enum ClawTrustEscrow.EscrowStatus",
          "name": "status",
          "type": "uint8"
        },
        {
          "internalType": "uint256",
          "name": "createdAt",
          "type": "uint256"
        },
        {
          "internalType": "uint256",
          "name": "resolvedAt",
          "type": "uint256"
        }
      ],
      "stateMutability": "view",
      "type": "function"
    },
    {
      "inputs": [
        {
          "internalType": "bytes32",
          "name": "gigId",
          "type": "bytes32"
        }
      ],
      "name": "getEscrow",
      "outputs": [
        {
          "components": [
            {
              "internalType": "bytes32",
              "name": "gigId",
              "type": "bytes32"
            },
            {
              "internalType": "address",
              "name": "depositor",
              "type": "address"
            },
            {
              "internalType": "address",
              "name": "payee",
              "type": "address"
            },
            {
              "internalType": "uint256",
              "name": "amount",
              "type": "uint256"
            },
            {
              "internalType": "address",
              "name": "token",
              "type": "address"
            },
            {
              "internalType": "enum ClawTrustEscrow.EscrowStatus",
              "name": "status",
              "type": "uint8"
            },
            {
              "internalType": "uint256",
              "name": "createdAt",
              "type": "uint256"
            },
            {
              "internalType": "uint256",
              "name": "resolvedAt",
              "type": "uint256"
            }
          ],
          "internalType": "struct ClawTrustEscrow.Escrow",
          "name": "",
          "type": "tuple"
        }
      ],
      "stateMutability": "view",
      "type": "function"
    },
    {
      "inputs": [
        {
          "internalType": "bytes32",
          "name": "gigId",
          "type": "bytes32"
        },
        {
          "internalType": "address",
          "name": "payee",
          "type": "address"
        },
        {
          "internalType": "address",
          "name": "token",
          "type": "address"
        },
        {
          "internalType": "uint256",
          "name": "amount",
          "type": "uint256"
        }
      ],
      "name": "lockERC20",
      "outputs": [],
      "stateMutability": "nonpayable",
      "type": "function"
    },
    {
      "inputs": [
        {
          "internalType": "bytes32",
          "name": "gigId",
          "type": "bytes32"
        },
        {
          "internalType": "address",
          "name": "payee",
          "type": "address"
        }
      ],
      "name": "lockETH",
      "outputs": [],
      "stateMutability": "payable",
      "type": "function"
    },
    {
      "inputs": [],
      "name": "owner",
      "outputs": [
        {
          "internalType": "address",
          "name": "",
          "type": "address"
        }
      ],
      "stateMutability": "view",
      "type": "function"
    },
    {
      "inputs": [],
      "name": "platformFeeRate",
      "outputs": [
        {
          "internalType": "uint256",
          "name": "",
          "type": "uint256"
        }
      ],
      "stateMutability": "view",
      "type": "function"
    },
    {
      "inputs": [
        {
          "internalType": "bytes32",
          "name": "gigId",
          "type": "bytes32"
        }
      ],
      "name": "refund",
      "outputs": [],
      "stateMutability": "nonpayable",
      "type": "function"
    },
    {
      "inputs": [
        {
          "internalType": "bytes32",
          "name": "gigId",
          "type": "bytes32"
        }
      ],
      "name": "refundAfterTimeout",
      "outputs": [],
      "stateMutability": "nonpayable",
      "type": "function"
    },
    {
      "inputs": [
        {
          "internalType": "bytes32",
          "name": "gigId",
          "type": "bytes32"
        }
      ],
      "name": "release",
      "outputs": [],
      "stateMutability": "nonpayable",
      "type": "function"
    },
    {
      "inputs": [
        {
          "internalType": "bytes32",
          "name": "gigId",
          "type": "bytes32"
        }
      ],
      "name": "releaseOnSwarmApproval",
      "outputs": [],
      "stateMutability": "nonpayable",
      "type": "function"
    },
    {
      "inputs": [],
      "name": "renounceOwnership",
      "outputs": [],
      "stateMutability": "nonpayable",
      "type": "function"
    },
    {
      "inputs": [
        {
          "internalType": "uint256",
          "name": "_rate",
          "type": "uint256"
        }
      ],
      "name": "setPlatformFeeRate",
      "outputs": [],
      "stateMutability": "nonpayable",
      "type": "function"
    },
    {
      "inputs": [
        {
          "internalType": "address",
          "name": "token",
          "type": "address"
        },
        {
          "internalType": "bool",
          "name": "approved",
          "type": "bool"
        }
      ],
      "name": "setTokenApproval",
      "outputs": [],
      "stateMutability": "nonpayable",
      "type": "function"
    },
    {
      "inputs": [
        {
          "internalType": "address",
          "name": "newOwner",
          "type": "address"
        }
      ],
      "name": "transferOwnership",
      "outputs": [],
      "stateMutability": "nonpayable",
      "type": "function"
    },
    {
      "inputs": [],
      "name": "validationRegistry",
      "outputs": [
        {
          "internalType": "address",
          "name": "",
          "type": "address"
        }
      ],
      "stateMutability": "view",
      "type": "function"
    }
  ],
  "bytecode": "0x60a06040523480156200001157600080fd5b5060405162001aa538038062001aa5833981016040819052620000349162000121565b600160005533806200006057604051631e4fbdf760e01b81526000600482015260240160405180910390fd5b6200006b81620000cf565b506001600160a01b038216620000945760405163e6c4247b60e01b815260040160405180910390fd5b6103e8811115620000b85760405163cd4e616760e01b815260040160405180910390fd5b6001600160a01b039091166080526005556200015d565b600180546001600160a01b038381166001600160a01b0319831681179093556040519116919082907f8be0079c531659141344cd1fd0a4f28419497f9722a3daafe3b4186f6b6457e090600090a35050565b600080604083850312156200013557600080fd5b82516001600160a01b03811681146200014d57600080fd5b6020939093015192949293505050565b608051611925620001806000396000818161024b0152610fe801526119256000f3fe60806040526004361061012a5760003560e01c80637249fbb6116100ab578063add98c701161006f578063add98c70146103be578063d73792a9146103de578063ee34bd4a146103f4578063eeca08f014610414578063f023b8111461042a578063f2fde38b1461045757600080fd5b80637249fbb61461031a5780637835ba331461033a5780638da5cb5b1461036a578063927fef2e1461038857806392f6576e146103a857600080fd5b80634c6b993a116100f25780634c6b993a1461023957806352bfd9ff1461028557806367d42a8b146102a55780636d1ea3fa146102c5578063715018a61461030557600080fd5b806314d91c841461012f578063155f80f6146101515780632d83549c1461017157806330815eee146102015780633382d04d14610226575b600080fd5b34801561013b57600080fd5b5061014f61014a36600461163a565b610477565b005b34801561015d57600080fd5b5061014f61016c366004611671565b610505565b34801561017d57600080fd5b506101e461018c3660046116b5565b6002602081905260009182526040909120805460018201549282015460038301546004840154600585015460069095015493956001600160a01b039081169593811694929390821692600160a01b90920460ff169188565b6040516101f8989796959493929190611706565b60405180910390f35b34801561020d57600080fd5b506102186276a70081565b6040519081526020016101f8565b61014f610234366004611757565b6107ca565b34801561024557600080fd5b5061026d7f000000000000000000000000000000000000000000000000000000000000000081565b6040516001600160a01b0390911681526020016101f8565b34801561029157600080fd5b5061014f6102a03660046116b5565b6109f7565b3480156102b157600080fd5b5061014f6102c03660046116b5565b610bd5565b3480156102d157600080fd5b506102f56102e0366004611783565b60046020526000908152604090205460ff1681565b60405190151581526020016101f8565b34801561031157600080fd5b5061014f610cb0565b34801561032657600080fd5b5061014f6103353660046116b5565b610cc4565b34801561034657600080fd5b506102f56103553660046116b5565b60036020526000908152604090205460ff1681565b34801561037657600080fd5b506001546001600160a01b031661026d565b34801561039457600080fd5b5061014f6103a33660046116b5565b610d8b565b3480156103b457600080fd5b506102186103e881565b3480156103ca57600080fd5b5061014f6103d93660046116b5565b610dfb565b3480156103ea57600080fd5b5061021861271081565b34801561040057600080fd5b5061014f61040f3660046116b5565b610f00565b34801561042057600080fd5b5061021860055481565b34801561043657600080fd5b5061044a6104453660046116b5565b6110e4565b6040516101f891906117a5565b34801561046357600080fd5b5061014f610472366004611783565b611207565b61047f611247565b6001600160a01b0382166104a65760405163e6c4247b60e01b815260040160405180910390fd5b6001600160a01b038216600081815260046020908152604091829020805460ff191685151590811790915591519182527facddef0bc85f1f88cae59ecb80b161e03a04bb438d9aa0e1f8cd5a34a1c48ca9910160405180910390a25050565b61050d611274565b8361052b576040516341ac62e960e01b815260040160405180910390fd5b60008481526003602052604090205460ff161561055b5760405163ed77877960e01b815260040160405180910390fd5b8060000361057c5760405163162908e360e11b815260040160405180910390fd5b6001600160a01b038316158061059957506001600160a01b038216155b156105b75760405163e6c4247b60e01b815260040160405180910390fd5b6001600160a01b03821660009081526004602052604090205460ff166105f0576040516332da96a360e01b815260040160405180910390fd5b6106056001600160a01b03831633308461129e565b604051806101000160405280858152602001336001600160a01b03168152602001846001600160a01b03168152602001828152602001836001600160a01b031681526020016001600481111561065d5761065d6116ce565b8152426020808301919091526000604092830181905287815260028083529083902084518155918401516001830180546001600160a01b03199081166001600160a01b03938416179091559385015191830180548516928216929092179091556060840151600383015560808401516004808401805495861692909316918217835560a086015193946001600160a81b03191690911790600160a01b90849081111561070b5761070b6116ce565b021790555060c0820151600582015560e09091015160069091015560008481526003602052604090819020805460ff1916600117905551339085907f709df319e78d57d7f07ce19efc11dd30a12e87691a8539407e2b93475f1a728f9061078790859087909182526001600160a01b0316602082015260400190565b60405180910390a360405184907f593f5b254250e545ccc957799ea6b89614e0210f3f63fe74f68b91b783db006d90600090a26107c46001600055565b50505050565b6107d2611274565b816107f0576040516341ac62e960e01b815260040160405180910390fd5b60008281526003602052604090205460ff16156108205760405163ed77877960e01b815260040160405180910390fd5b346000036108415760405163162908e360e11b815260040160405180910390fd5b6001600160a01b0381166108685760405163e6c4247b60e01b815260040160405180910390fd5b60408051610100810182528381523360208083019182526001600160a01b038581168486019081523460608601908152600060808701818152600160a089018181524260c08b015260e08a018490528c84526002978890529990922088518155965191870180549286166001600160a01b03199384161790559251948601805495851695821695909517909455516003850155516004808501805492909316938216841783559551949593949391926001600160a81b03199091161790600160a01b90849081111561093c5761093c6116ce565b021790555060c0820151600582015560e090910151600690910155600082815260036020526040808220805460ff1916600117905551339184917f709df319e78d57d7f07ce19efc11dd30a12e87691a8539407e2b93475f1a728f916109b6913491909182526001600160a01b0316602082015260400190565b60405180910390a360405182907f593f5b254250e545ccc957799ea6b89614e0210f3f63fe74f68b91b783db006d90600090a26109f36001600055565b5050565b6109ff611274565b600081815260026020908152604080832060039092529091205460ff16610a395760405163f1d80ab160e01b815260040160405180910390fd5b6001600482810154600160a01b900460ff1690811115610a5b57610a5b6116ce565b14610a79576040516307a92f1960e51b815260040160405180910390fd5b6276a7008160050154610a8c919061182d565b421015610aab576040516282b42960e81b815260040160405180910390fd5b600481018054600360a01b60ff60a01b198216179091554260068301556001600160a01b0316610b5557600181015460038201546040516000926001600160a01b031691908381818185875af1925050503d8060008114610b28576040519150601f19603f3d011682016040523d82523d6000602084013e610b2d565b606091505b5050905080610b4f576040516312171d8360e31b815260040160405180910390fd5b50610b7c565b600181015460038201546004830154610b7c926001600160a01b0391821692911690611305565b600181015460038201546040519081526001600160a01b039091169083907ffc31a7ddbe933aa6e67f3c98c183fbc87addd2b602fcfb10238d2f85cf0266179060200160405180910390a350610bd26001600055565b50565b610bdd611274565b600081815260026020908152604080832060039092529091205460ff16610c175760405163f1d80ab160e01b815260040160405180910390fd5b6001600482810154600160a01b900460ff1690811115610c3957610c396116ce565b14610c57576040516307a92f1960e51b815260040160405180910390fd5b6001546001600160a01b03163314801590610c7f575060018101546001600160a01b03163314155b15610c9c576040516282b42960e81b815260040160405180910390fd5b610ca58161133b565b50610bd26001600055565b610cb8611247565b610cc2600061154d565b565b610ccc611274565b600081815260026020908152604080832060039092529091205460ff16610d065760405163f1d80ab160e01b815260040160405180910390fd5b6001600482810154600160a01b900460ff1690811115610d2857610d286116ce565b14610d46576040516307a92f1960e51b815260040160405180910390fd5b6001546001600160a01b03163314801590610d6e575060018101546001600160a01b03163314155b15610aab576040516282b42960e81b815260040160405180910390fd5b610d93611247565b6103e8811115610db65760405163cd4e616760e01b815260040160405180910390fd5b600580549082905560408051828152602081018490527fa82b850e6100ae23c7e82adbdcf4da8a3740c1540a6241792521a80179a892dc910160405180910390a15050565b600081815260026020908152604080832060039092529091205460ff16610e355760405163f1d80ab160e01b815260040160405180910390fd5b6001600482810154600160a01b900460ff1690811115610e5757610e576116ce565b14610e75576040516307a92f1960e51b815260040160405180910390fd5b60018101546001600160a01b03163314801590610e9f575060028101546001600160a01b03163314155b15610ebc576040516282b42960e81b815260040160405180910390fd5b60048101805460ff60a01b1916600160a21b17905560405182907f550ba3f95fa658596451573e6d789afa3858d8a992cb121712d3df88cff5765c90600090a25050565b610f08611274565b600081815260026020908152604080832060039092529091205460ff16610f425760405163f1d80ab160e01b815260040160405180910390fd5b6001600482810154600160a01b900460ff1690811115610f6457610f646116ce565b14610f82576040516307a92f1960e51b815260040160405180910390fd5b60018101546001600160a01b03163314801590610fac575060028101546001600160a01b03163314155b8015610fc357506001546001600160a01b03163314155b15610fe0576040516282b42960e81b815260040160405180910390fd5b6000806000807f00000000000000000000000000000000000000000000000000000000000000006001600160a01b03166390b0f887876040518263ffffffff1660e01b815260040161103491815260200190565b60a060405180830381865afa158015611051573d6000803e3d6000fd5b505050506040513d601f19601f820116820180604052508101906110759190611846565b94509450945050935080158061108a57508284105b156110a85760405163a7b1c91960e01b815260040160405180910390fd5b8160ff166003036110cc57604051637ec0a88760e01b815260040160405180910390fd5b6110d58561133b565b5050505050610bd26001600055565b61112c604080516101008101825260008082526020820181905291810182905260608101829052608081018290529060a0820190815260200160008152602001600081525090565b60008281526003602052604090205460ff1661115b5760405163f1d80ab160e01b815260040160405180910390fd5b6000828152600260208181526040928390208351610100810185528154815260018201546001600160a01b03908116938201939093529281015482169383019390935260038301546060830152600480840154918216608084015291929160a0840191600160a01b900460ff16908111156111d8576111d86116ce565b60048111156111e9576111e96116ce565b81526005820154602082015260069091015460409091015292915050565b61120f611247565b6001600160a01b03811661123e57604051631e4fbdf760e01b8152600060048201526024015b60405180910390fd5b610bd28161154d565b6001546001600160a01b03163314610cc25760405163118cdaa760e01b8152336004820152602401611235565b60026000540361129757604051633ee5aeb560e01b815260040160405180910390fd5b6002600055565b6040516001600160a01b0384811660248301528381166044830152606482018390526107c49186918216906323b872dd906084015b604051602081830303815290604052915060e01b6020820180516001600160e01b03838183161783525050505061159f565b6040516001600160a01b0383811660248301526044820183905261133691859182169063a9059cbb906064016112d3565b505050565b60048101805460ff60a01b1916600160a11b17905542600682015560055460038201546000916127109161136f91906118a3565b61137991906118ba565b9050600081836003015461138d91906118dc565b60048401549091506001600160a01b03166114ab5760028301546040516000916001600160a01b03169083908381818185875af1925050503d80600081146113f1576040519150601f19603f3d011682016040523d82523d6000602084013e6113f6565b606091505b5050905080611418576040516312171d8360e31b815260040160405180910390fd5b82156114a55760006114326001546001600160a01b031690565b6001600160a01b03168460405160006040518083038185875af1925050503d806000811461147c576040519150601f19603f3d011682016040523d82523d6000602084013e611481565b606091505b50509050806114a3576040516312171d8360e31b815260040160405180910390fd5b505b506114fc565b600283015460048401546114cc916001600160a01b03918216911683611305565b81156114fc576114fc6114e76001546001600160a01b031690565b60048501546001600160a01b03169084611305565b6002830154835460408051848152602081018690526001600160a01b03909316927f99450c840c88bca94a656610fcad5090621de4f47589c6d5844c291b64821063910160405180910390a3505050565b600180546001600160a01b038381166001600160a01b0319831681179093556040519116919082907f8be0079c531659141344cd1fd0a4f28419497f9722a3daafe3b4186f6b6457e090600090a35050565b600080602060008451602086016000885af1806115c2576040513d6000823e3d81fd5b50506000513d915081156115da5780600114156115e7565b6001600160a01b0384163b155b156107c457604051635274afe760e01b81526001600160a01b0385166004820152602401611235565b80356001600160a01b038116811461162757600080fd5b919050565b8015158114610bd257600080fd5b6000806040838503121561164d57600080fd5b61165683611610565b915060208301356116668161162c565b809150509250929050565b6000806000806080858703121561168757600080fd5b8435935061169760208601611610565b92506116a560408601611610565b9396929550929360600135925050565b6000602082840312156116c757600080fd5b5035919050565b634e487b7160e01b600052602160045260246000fd5b6005811061170257634e487b7160e01b600052602160045260246000fd5b9052565b8881526001600160a01b03888116602083015287811660408301526060820187905285166080820152610100810161174160a08301866116e4565b60c082019390935260e001529695505050505050565b6000806040838503121561176a57600080fd5b8235915061177a60208401611610565b90509250929050565b60006020828403121561179557600080fd5b61179e82611610565b9392505050565b60006101008201905082518252602083015160018060a01b03808216602085015280604086015116604085015260608501516060850152806080860151166080850152505060a08301516117fc60a08401826116e4565b5060c083015160c083015260e083015160e083015292915050565b634e487b7160e01b600052601160045260246000fd5b8082018082111561184057611840611817565b92915050565b600080600080600060a0868803121561185e57600080fd5b855194506020860151935060408601519250606086015160ff8116811461188457600080fd5b60808701519092506118958161162c565b809150509295509295909350565b808202811582820484141761184057611840611817565b6000826118d757634e487b7160e01b600052601260045260246000fd5b500490565b818103818111156118405761184061181756fea26469706673582212209339b6d2f0ff7aa60c77e9e4e2d6b40699deb0721a816dbba7fa99c00b71156f64736f6c63430008140033",
  "linkReferences": {},
  "deployedLinkReferences": {}
}