{
  "_format": "hh-sol-artifact-1",
  "contractName": "ClawTrustSwarmValidator",
  "sourceName": "contracts/ClawTrustSwarmValidator.sol",
  "abi": [
    {
      "inputs": [
        {
          "internalType": "address",
          "name": "_escrowContract",
          "type": "address"
        }
      ],
      "stateMutability": "nonpayable",
      "type": "constructor"
    },
    {
      "inputs": [],
      "name": "AlreadyVoted",
      "type": "error"
    },
    {
      "inputs": [],
      "name": "DuplicateCandidate",
      "type": "error"
    },
    {
      "inputs": [],
      "name": "InsufficientCandidates",
      "type": "error"
    },
    {
      "inputs": [],
      "name": "InsufficientRewardPool",
      "type": "error"
    },
    {
      "inputs": [],
      "name": "InvalidAddress",
      "type": "error"
    },
    {
      "inputs": [],
      "name": "InvalidThreshold",
      "type": "error"
    },
    {
      "inputs": [],
      "name": "InvalidVote",
      "type": "error"
    },
    {
      "inputs": [],
      "name": "NoRewardAvailable",
      "type": "error"
    },
    {
      "inputs": [],
      "name": "NotCandidate",
      "type": "error"
    },
    {
      "inputs": [],
      "name": "NotExpired",
      "type": "error"
    },
    {
      "inputs": [
        {
          "internalType": "address",
          "name": "owner",
          "type": "address"
        }
      ],
      "name": "OwnableInvalidOwner",
      "type": "error"
    },
    {
      "inputs": [
        {
          "internalType": "address",
          "name": "account",
          "type": "address"
        }
      ],
      "name": "OwnableUnauthorizedAccount",
      "type": "error"
    },
    {
      "inputs": [],
      "name": "ReentrancyGuardReentrantCall",
      "type": "error"
    },
    {
      "inputs": [],
      "name": "RewardAlreadyClaimed",
      "type": "error"
    },
    {
      "inputs": [
        {
          "internalType": "address",
          "name": "token",
          "type": "address"
        }
      ],
      "name": "SafeERC20FailedOperation",
      "type": "error"
    },
    {
      "inputs": [],
      "name": "TooManyCandidates",
      "type": "error"
    },
    {
      "inputs": [],
      "name": "TransferFailed",
      "type": "error"
    },
    {
      "inputs": [],
      "name": "ValidationAlreadyExists",
      "type": "error"
    },
    {
      "inputs": [],
      "name": "ValidationAlreadyResolved",
      "type": "error"
    },
    {
      "inputs": [],
      "name": "ValidationNotApproved",
      "type": "error"
    },
    {
      "inputs": [],
      "name": "ValidationNotFound",
      "type": "error"
    },
    {
      "anonymous": false,
      "inputs": [
        {
          "indexed": false,
          "internalType": "uint256",
          "name": "oldThreshold",
          "type": "uint256"
        },
        {
          "indexed": false,
          "internalType": "uint256",
          "name": "newThreshold",
          "type": "uint256"
        }
      ],
      "name": "DefaultThresholdUpdated",
      "type": "event"
    },
    {
      "anonymous": false,
      "inputs": [
        {
          "indexed": true,
          "internalType": "address",
          "name": "oldEscrow",
          "type": "address"
        },
        {
          "indexed": true,
          "internalType": "address",
          "name": "newEscrow",
          "type": "address"
        }
      ],
      "name": "EscrowContractUpdated",
      "type": "event"
    },
    {
      "anonymous": false,
      "inputs": [
        {
          "indexed": true,
          "internalType": "address",
          "name": "previousOwner",
          "type": "address"
        },
        {
          "indexed": true,
          "internalType": "address",
          "name": "newOwner",
          "type": "address"
        }
      ],
      "name": "OwnershipTransferred",
      "type": "event"
    },
    {
      "anonymous": false,
      "inputs": [
        {
          "indexed": true,
          "internalType": "bytes32",
          "name": "gigId",
          "type": "bytes32"
        },
        {
          "indexed": true,
          "internalType": "address",
          "name": "validator",
          "type": "address"
        },
        {
          "indexed": false,
          "internalType": "uint256",
          "name": "amount",
          "type": "uint256"
        }
      ],
      "name": "RewardClaimed",
      "type": "event"
    },
    {
      "anonymous": false,
      "inputs": [
        {
          "indexed": true,
          "internalType": "bytes32",
          "name": "gigId",
          "type": "bytes32"
        },
        {
          "indexed": false,
          "internalType": "address[]",
          "name": "candidates",
          "type": "address[]"
        },
        {
          "indexed": false,
          "internalType": "uint256",
          "name": "threshold",
          "type": "uint256"
        },
        {
          "indexed": false,
          "internalType": "uint256",
          "name": "rewardPool",
          "type": "uint256"
        },
        {
          "indexed": false,
          "internalType": "address",
          "name": "rewardToken",
          "type": "address"
        },
        {
          "indexed": false,
          "internalType": "uint256",
          "name": "expiresAt",
          "type": "uint256"
        }
      ],
      "name": "ValidationCreated",
      "type": "event"
    },
    {
      "anonymous": false,
      "inputs": [
        {
          "indexed": true,
          "internalType": "bytes32",
          "name": "gigId",
          "type": "bytes32"
        }
      ],
      "name": "ValidationExpired",
      "type": "event"
    },
    {
      "anonymous": false,
      "inputs": [
        {
          "indexed": true,
          "internalType": "bytes32",
          "name": "gigId",
          "type": "bytes32"
        },
        {
          "indexed": false,
          "internalType": "enum ClawTrustSwarmValidator.ValidationStatus",
          "name": "status",
          "type": "uint8"
        },
        {
          "indexed": false,
          "internalType": "uint256",
          "name": "votesFor",
          "type": "uint256"
        },
        {
          "indexed": false,
          "internalType": "uint256",
          "name": "votesAgainst",
          "type": "uint256"
        }
      ],
      "name": "ValidationResolved",
      "type": "event"
    },
    {
      "anonymous": false,
      "inputs": [
        {
          "indexed": true,
          "internalType": "bytes32",
          "name": "gigId",
          "type": "bytes32"
        },
        {
          "indexed": true,
          "internalType": "address",
          "name": "voter",
          "type": "address"
        },
        {
          "indexed": false,
          "internalType": "enum ClawTrustSwarmValidator.VoteType",
          "name": "vote",
          "type": "uint8"
        }
      ],
      "name": "VoteCast",
      "type": "event"
    },
    {
      "inputs": [],
      "name": "MAX_CANDIDATES",
      "outputs": [
        {
          "internalType": "uint256",
          "name": "",
          "type": "uint256"
        }
      ],
      "stateMutability": "view",
      "type": "function"
    },
    {
      "inputs": [],
      "name": "VALIDATION_DURATION",
      "outputs": [
        {
          "internalType": "uint256",
          "name": "",
          "type": "uint256"
        }
      ],
      "stateMutability": "view",
      "type": "function"
    },
    {
      "inputs": [
        {
          "internalType": "bytes32",
          "name": "gigId",
          "type": "bytes32"
        }
      ],
      "name": "aggregateVotes",
      "outputs": [
        {
          "internalType": "uint256",
          "name": "votesFor",
          "type": "uint256"
        },
        {
          "internalType": "uint256",
          "name": "votesAgainst",
          "type": "uint256"
        },
        {
          "internalType": "uint256",
          "name": "threshold",
          "type": "uint256"
        },
        {
          "internalType": "uint8",
          "name": "status",
          "type": "uint8"
        },
        {
          "internalType": "bool",
          "name": "isApproved",
          "type": "bool"
        }
      ],
      "stateMutability": "view",
      "type": "function"
    },
    {
      "inputs": [
        {
          "internalType": "bytes32",
          "name": "gigId",
          "type": "bytes32"
        }
      ],
      "name": "claimReward",
      "outputs": [],
      "stateMutability": "nonpayable",
      "type": "function"
    },
    {
      "inputs": [
        {
          "internalType": "uint256",
          "name": "gigBudget",
          "type": "uint256"
        },
        {
          "internalType": "uint256",
          "name": "rewardRate",
          "type": "uint256"
        },
        {
          "internalType": "uint256",
          "name": "denominator",
          "type": "uint256"
        }
      ],
      "name": "computeRewardPool",
      "outputs": [
        {
          "internalType": "uint256",
          "name": "",
          "type": "uint256"
        }
      ],
      "stateMutability": "pure",
      "type": "function"
    },
    {
      "inputs": [
        {
          "internalType": "bytes32",
          "name": "gigId",
          "type": "bytes32"
        },
        {
          "internalType": "address[]",
          "name": "candidates",
          "type": "address[]"
        },
        {
          "internalType": "uint256",
          "name": "threshold",
          "type": "uint256"
        },
        {
          "internalType": "uint256",
          "name": "rewardPool",
          "type": "uint256"
        },
        {
          "internalType": "address",
          "name": "rewardToken",
          "type": "address"
        }
      ],
      "name": "createValidation",
      "outputs": [],
      "stateMutability": "payable",
      "type": "function"
    },
    {
      "inputs": [],
      "name": "defaultCandidateCount",
      "outputs": [
        {
          "internalType": "uint256",
          "name": "",
          "type": "uint256"
        }
      ],
      "stateMutability": "view",
      "type": "function"
    },
    {
      "inputs": [],
      "name": "defaultThreshold",
      "outputs": [
        {
          "internalType": "uint256",
          "name": "",
          "type": "uint256"
        }
      ],
      "stateMutability": "view",
      "type": "function"
    },
    {
      "inputs": [],
      "name": "escrowContract",
      "outputs": [
        {
          "internalType": "address",
          "name": "",
          "type": "address"
        }
      ],
      "stateMutability": "view",
      "type": "function"
    },
    {
      "inputs": [
        {
          "internalType": "bytes32",
          "name": "gigId",
          "type": "bytes32"
        }
      ],
      "name": "expireValidation",
      "outputs": [],
      "stateMutability": "nonpayable",
      "type": "function"
    },
    {
      "inputs": [
        {
          "internalType": "bytes32",
          "name": "gigId",
          "type": "bytes32"
        }
      ],
      "name": "getValidationInfo",
      "outputs": [
        {
          "components": [
            {
              "internalType": "bytes32",
              "name": "gigId",
              "type": "bytes32"
            },
            {
              "internalType": "address[]",
              "name": "candidates",
              "type": "address[]"
            },
            {
              "internalType": "uint256",
              "name": "votesFor",
              "type": "uint256"
            },
            {
              "internalType": "uint256",
              "name": "votesAgainst",
              "type": "uint256"
            },
            {
              "internalType": "uint256",
              "name": "threshold",
              "type": "uint256"
            },
            {
              "internalType": "enum ClawTrustSwarmValidator.ValidationStatus",
              "name": "status",
              "type": "uint8"
            },
            {
              "internalType": "uint256",
              "name": "createdAt",
              "type": "uint256"
            },
            {
              "internalType": "uint256",
              "name": "resolvedAt",
              "type": "uint256"
            },
            {
              "internalType": "uint256",
              "name": "expiresAt",
              "type": "uint256"
            },
            {
              "internalType": "uint256",
              "name": "rewardPool",
              "type": "uint256"
            },
            {
              "internalType": "address",
              "name": "rewardToken",
              "type": "address"
            }
          ],
          "internalType": "struct ClawTrustSwarmValidator.ValidationInfo",
          "name": "",
          "type": "tuple"
        }
      ],
      "stateMutability": "view",
      "type": "function"
    },
    {
      "inputs": [
        {
          "internalType": "bytes32",
          "name": "gigId",
          "type": "bytes32"
        },
        {
          "internalType": "address",
          "name": "voter",
          "type": "address"
        }
      ],
      "name": "getVote",
      "outputs": [
        {
          "internalType": "enum ClawTrustSwarmValidator.VoteType",
          "name": "",
          "type": "uint8"
        }
      ],
      "stateMutability": "view",
      "type": "function"
    },
    {
      "inputs": [
        {
          "internalType": "bytes32",
          "name": "gigId",
          "type": "bytes32"
        },
        {
          "internalType": "address",
          "name": "voter",
          "type": "address"
        }
      ],
      "name": "hasVoted",
      "outputs": [
        {
          "internalType": "bool",
          "name": "",
          "type": "bool"
        }
      ],
      "stateMutability": "view",
      "type": "function"
    },
    {
      "inputs": [
        {
          "internalType": "bytes32",
          "name": "gigId",
          "type": "bytes32"
        },
        {
          "internalType": "address",
          "name": "addr",
          "type": "address"
        }
      ],
      "name": "isCandidate",
      "outputs": [
        {
          "internalType": "bool",
          "name": "",
          "type": "bool"
        }
      ],
      "stateMutability": "view",
      "type": "function"
    },
    {
      "inputs": [],
      "name": "owner",
      "outputs": [
        {
          "internalType": "address",
          "name": "",
          "type": "address"
        }
      ],
      "stateMutability": "view",
      "type": "function"
    },
    {
      "inputs": [],
      "name": "renounceOwnership",
      "outputs": [],
      "stateMutability": "nonpayable",
      "type": "function"
    },
    {
      "inputs": [
        {
          "internalType": "uint256",
          "name": "_count",
          "type": "uint256"
        }
      ],
      "name": "setDefaultCandidateCount",
      "outputs": [],
      "stateMutability": "nonpayable",
      "type": "function"
    },
    {
      "inputs": [
        {
          "internalType": "uint256",
          "name": "_threshold",
          "type": "uint256"
        }
      ],
      "name": "setDefaultThreshold",
      "outputs": [],
      "stateMutability": "nonpayable",
      "type": "function"
    },
    {
      "inputs": [
        {
          "internalType": "address",
          "name": "_escrow",
          "type": "address"
        }
      ],
      "name": "setEscrowContract",
      "outputs": [],
      "stateMutability": "nonpayable",
      "type": "function"
    },
    {
      "inputs": [
        {
          "internalType": "address",
          "name": "newOwner",
          "type": "address"
        }
      ],
      "name": "transferOwnership",
      "outputs": [],
      "stateMutability": "nonpayable",
      "type": "function"
    },
    {
      "inputs": [
        {
          "internalType": "bytes32",
          "name": "",
          "type": "bytes32"
        }
      ],
      "name": "validationExists",
      "outputs": [
        {
          "internalType": "bool",
          "name": "",
          "type": "bool"
        }
      ],
      "stateMutability": "view",
      "type": "function"
    },
    {
      "inputs": [
        {
          "internalType": "bytes32",
          "name": "gigId",
          "type": "bytes32"
        },
        {
          "internalType": "enum ClawTrustSwarmValidator.VoteType",
          "name": "_vote",
          "type": "uint8"
        }
      ],
      "name": "vote",
      "outputs": [],
      "stateMutability": "nonpayable",
      "type": "function"
    },
    {
      "stateMutability": "payable",
      "type": "receive"
    }
  ],
  "bytecode": "0x6080604052600360055560056006553480156200001b57600080fd5b5060405162001b5a38038062001b5a8339810160408190526200003e9162000113565b33806200006557604051631e4fbdf760e01b81526000600482015260240160405180910390fd5b6200007081620000c3565b50600180556001600160a01b0381166200009d5760405163e6c4247b60e01b815260040160405180910390fd5b600480546001600160a01b0319166001600160a01b039290921691909117905562000145565b600080546001600160a01b038381166001600160a01b0319831681178455604051919092169283917f8be0079c531659141344cd1fd0a4f28419497f9722a3daafe3b4186f6b6457e09190a35050565b6000602082840312156200012657600080fd5b81516001600160a01b03811681146200013e57600080fd5b9392505050565b611a0580620001556000396000f3fe6080604052600436106101395760003560e01c8063c5246bf5116100ab578063de702a781161006f578063de702a781461039e578063e42a96e7146103be578063f0786096146103de578063f2fde38b146103f3578063f42375b514610413578063f54140231461043357600080fd5b8063c5246bf5146102ea578063c9a28cb91461030a578063cf52ca841461032a578063d2aa7b5a14610357578063d6cd5ae31461038757600080fd5b806382a20aac116100fd57806382a20aac146101de5780638da5cb5b146101fe57806390b0f88714610230578063a74458381461027d578063aadc3b721461029d578063b3e7c2bd146102bd57600080fd5b8063051605ca1461014557806335fb5a441461017a57806353f10a4b1461018f578063715018a6146101b3578063733b6503146101c857600080fd5b3661014057005b600080fd5b34801561015157600080fd5b506101656101603660046115ff565b610453565b60405190151581526020015b60405180910390f35b61018d61018836600461162b565b6104b3565b005b34801561019b57600080fd5b506101a560055481565b604051908152602001610171565b3480156101bf57600080fd5b5061018d61078a565b3480156101d457600080fd5b506101a560065481565b3480156101ea57600080fd5b5061018d6101f93660046116cd565b61079e565b34801561020a57600080fd5b506000546001600160a01b03165b6040516001600160a01b039091168152602001610171565b34801561023c57600080fd5b5061025061024b3660046116cd565b6107d8565b6040805195865260208601949094529284019190915260ff1660608301521515608082015260a001610171565b34801561028957600080fd5b5061018d6102983660046116cd565b610875565b3480156102a957600080fd5b506101656102b83660046115ff565b61091c565b3480156102c957600080fd5b506102dd6102d83660046115ff565b61098c565b60405161017191906116fc565b3480156102f657600080fd5b5061018d6103053660046116cd565b6109ea565b34801561031657600080fd5b5061018d610325366004611716565b610a62565b34801561033657600080fd5b5061034a6103453660046116cd565b610ca0565b60405161017191906117a2565b34801561036357600080fd5b506101656103723660046116cd565b60036020526000908152604090205460ff1681565b34801561039357600080fd5b506101a562093a8081565b3480156103aa57600080fd5b506101a56103b936600461184d565b610dda565b3480156103ca57600080fd5b50600454610218906001600160a01b031681565b3480156103ea57600080fd5b506101a5603281565b3480156103ff57600080fd5b5061018d61040e366004611879565b610df9565b34801561041f57600080fd5b5061018d61042e366004611879565b610e3c565b34801561043f57600080fd5b5061018d61044e3660046116cd565b610ebd565b60008281526003602052604081205460ff1661048257604051637f7667e360e11b815260040160405180910390fd5b5060008281526002602090815260408083206001600160a01b038516845260030190915290205460ff165b92915050565b6004546001600160a01b031633146104de5760405163e6c4247b60e01b815260040160405180910390fd5b60008681526003602052604090205460ff161561050e57604051638ee7480160e01b815260040160405180910390fd5b60328411156105305760405163e411cb2760e01b815260040160405180910390fd5b82841015610551576040516313bd20b360e01b815260040160405180910390fd5b826000036105725760405163aabd5a0960e01b815260040160405180910390fd5b6001600160a01b0381166105a657813410156105a157604051633270436b60e01b815260040160405180910390fd5b6105c1565b81156105c1576105c16001600160a01b038216333085611176565b60008681526002602052604090208681556006810184905560078101805460ff1916905542600882018190556105fb9062093a80906118b1565b600a820155600b8101839055600d810180546001600160a01b0319166001600160a01b03841617905560005b8581101561071f576000878783818110610643576106436118c4565b90506020020160208101906106589190611879565b90506001600160a01b0381166106815760405163e6c4247b60e01b815260040160405180910390fd5b6001600160a01b038116600090815260038401602052604090205460ff16156106bd57604051638c2bd5a760e01b815260040160405180910390fd5b6001808401805480830182556000918252602080832090910180546001600160a01b039095166001600160a01b031990951685179055928152600385019092526040909120805460ff1916909117905580610717816118da565b915050610627565b5060008781526003602052604090819020805460ff19166001179055600a820154905188917f5797e3f3ec45e3076d5e19186788dbf6d3b2aa9380b563e81baed65468de8d7491610779918a918a918a918a918a916118f3565b60405180910390a250505050505050565b6107926111e3565b61079c6000611210565b565b6107a66111e3565b60038110806107b55750603281115b156107d35760405163aabd5a0960e01b815260040160405180910390fd5b600655565b600081815260036020526040812054819081908190819060ff1661080f57604051637f7667e360e11b815260040160405180910390fd5b6000868152600260205260409020600481015460058201546006830154600784015460ff166003811115610845576108456116e6565b6001600786015460ff166003811115610860576108606116e6565b14955095509550955095505091939590929450565b60008181526003602052604090205460ff166108a457604051637f7667e360e11b815260040160405180910390fd5b600081815260026020526040812090600782015460ff1660038111156108cc576108cc6116e6565b146108ea5760405163309fa15960e11b815260040160405180910390fd5b80600a015442101561090f5760405163d0404f8560e01b815260040160405180910390fd5b61091882611260565b5050565b60008281526003602052604081205460ff1661094b57604051637f7667e360e11b815260040160405180910390fd5b60008381526002602081815260408084206001600160a01b0387168552830190915282205460ff1690811115610983576109836116e6565b14159392505050565b60008281526003602052604081205460ff166109bb57604051637f7667e360e11b815260040160405180910390fd5b5060008281526002602081815260408084206001600160a01b0386168552909201905290205460ff1692915050565b6109f26111e3565b8015806109ff5750601481115b15610a1d5760405163aabd5a0960e01b815260040160405180910390fd5b600580549082905560408051828152602081018490527fbc9cde51d431244f4ec24c221d9df1276eba01a3b7b737ddc9272f26707dcc86910160405180910390a15050565b60008281526003602052604090205460ff16610a9157604051637f7667e360e11b815260040160405180910390fd5b600082815260026020526040812090600782015460ff166003811115610ab957610ab96116e6565b14610ad75760405163309fa15960e11b815260040160405180910390fd5b80600a01544210610b0457610aeb83611260565b60405163309fa15960e11b815260040160405180910390fd5b6001826002811115610b1857610b186116e6565b14158015610b3857506002826002811115610b3557610b356116e6565b14155b15610b5657604051636aee863360e11b815260040160405180910390fd5b3360009081526002828101602052604082205460ff1690811115610b7c57610b7c6116e6565b14610b9a57604051637c9a1cf960e01b815260040160405180910390fd5b33600090815260038201602052604090205460ff16610bcc57604051634f32a51b60e01b815260040160405180910390fd5b336000908152600280830160205260409091208054849260ff19909116906001908490811115610bfe57610bfe6116e6565b02179055506001826002811115610c1757610c176116e6565b03610c3857600481018054906000610c2e836118da565b9190505550610c50565b600581018054906000610c4a836118da565b91905055505b336001600160a01b0316837fd8a95ca05e9a2656fe21d836329d9cd77830e7fef7acb7c0fd3bf5421ea7ad9a84604051610c8a91906116fc565b60405180910390a3610c9b836112b7565b505050565b610ca861156c565b60008281526003602052604090205460ff16610cd757604051637f7667e360e11b815260040160405180910390fd5b60008281526002602090815260409182902082516101608101845281548152600182018054855181860281018601909652808652929491938481019390830182828015610d4d57602002820191906000526020600020905b81546001600160a01b03168152600190910190602001808311610d2f575b5050509183525050600483015460208201526005830154604082015260068301546060820152600783015460809091019060ff166003811115610d9257610d926116e6565b81526008830154602082015260098301546040820152600a8301546060820152600b8301546080820152600d909201546001600160a01b031660a09092019190915292915050565b600081610de78486611964565b610df1919061197b565b949350505050565b610e016111e3565b6001600160a01b038116610e3057604051631e4fbdf760e01b8152600060048201526024015b60405180910390fd5b610e3981611210565b50565b610e446111e3565b6001600160a01b038116610e6b5760405163e6c4247b60e01b815260040160405180910390fd5b600480546001600160a01b038381166001600160a01b0319831681179093556040519116919082907fb4314795ba509f4f6e4f54698ebcf794fed2c1ba8199f5d0024b3f792eb606d190600090a35050565b610ec56113ae565b60008181526003602052604090205460ff16610ef457604051637f7667e360e11b815260040160405180910390fd5b60008181526002602052604090206001600782015460ff166003811115610f1d57610f1d6116e6565b14610f3b5760405163936e222760e01b815260040160405180910390fd5b6001336000908152600280840160205260409091205460ff1690811115610f6457610f646116e6565b14610f8257604051636d363c4560e01b815260040160405180910390fd5b336000908152600e8201602052604090205460ff1615610fb557604051632cfe303760e21b815260040160405180910390fd5b600b8101541580610fc857506004810154155b15610fe657604051636d363c4560e01b815260040160405180910390fd5b6000816004015482600b0154610ffc919061197b565b90508060000361101f57604051636d363c4560e01b815260040160405180910390fd5b600082600c015483600b0154611035919061199d565b90508060000361105857604051636d363c4560e01b815260040160405180910390fd5b80821115611064578091505b336000908152600e840160205260408120805460ff19166001179055600c840180548492906110949084906118b1565b9091555050600d8301546001600160a01b031661111a57604051600090339084908381818185875af1925050503d80600081146110ed576040519150601f19603f3d011682016040523d82523d6000602084013e6110f2565b606091505b5050905080611114576040516312171d8360e31b815260040160405180910390fd5b50611133565b600d830154611133906001600160a01b031633846113d8565b604051828152339085907ffe236dfc7ce073698734b89da1aee0e7551c9c6d264404c502e6e8fefc1132a89060200160405180910390a3505050610e3960018055565b6040516001600160a01b0384811660248301528381166044830152606482018390526111dd9186918216906323b872dd906084015b604051602081830303815290604052915060e01b6020820180516001600160e01b038381831617835250505050611409565b50505050565b6000546001600160a01b0316331461079c5760405163118cdaa760e01b8152336004820152602401610e27565b600080546001600160a01b038381166001600160a01b0319831681178455604051919092169283917f8be0079c531659141344cd1fd0a4f28419497f9722a3daafe3b4186f6b6457e09190a35050565b60008181526002602052604080822060078101805460ff191660031790554260098201559051909183917f8b958cbab654ffdf106c5dc72615a2fa1c4ab4c35d24ea9496e0624979242c819190a26109188261147a565b600081815260026020526040902060068101546004820154106113375760078101805460ff191660019081179091554260098301556004820154600583015460405185937ff79a3fe313c09f2b10b7e153e1651748de40149523fefde9a663bde85bb4d2229361132b9391929091906119b0565b60405180910390a25050565b80600601548160050154106109185760078101805460ff191660029081179091554260098301556004820154600583015460405185937ff79a3fe313c09f2b10b7e153e1651748de40149523fefde9a663bde85bb4d2229361139d9391929091906119b0565b60405180910390a26109188261147a565b6002600154036113d157604051633ee5aeb560e01b815260040160405180910390fd5b6002600155565b6040516001600160a01b03838116602483015260448201839052610c9b91859182169063a9059cbb906064016111ab565b600080602060008451602086016000885af18061142c576040513d6000823e3d81fd5b50506000513d91508115611444578060011415611451565b6001600160a01b0384163b155b156111dd57604051635274afe760e01b81526001600160a01b0385166004820152602401610e27565b6000818152600260205260408120600b810154909103611498575050565b600081600c015482600b01546114ae919061199d565b9050806000036114bd57505050565b600b820154600c830155600d8201546001600160a01b031661154d576004546040516000916001600160a01b03169083908381818185875af1925050503d8060008114611526576040519150601f19603f3d011682016040523d82523d6000602084013e61152b565b606091505b50509050806111dd576040516312171d8360e31b815260040160405180910390fd5b600454600d830154610c9b916001600160a01b039182169116836113d8565b6040518061016001604052806000801916815260200160608152602001600081526020016000815260200160008152602001600060038111156115b1576115b16116e6565b81526020016000815260200160008152602001600081526020016000815260200160006001600160a01b031681525090565b80356001600160a01b03811681146115fa57600080fd5b919050565b6000806040838503121561161257600080fd5b82359150611622602084016115e3565b90509250929050565b60008060008060008060a0878903121561164457600080fd5b86359550602087013567ffffffffffffffff8082111561166357600080fd5b818901915089601f83011261167757600080fd5b81358181111561168657600080fd5b8a60208260051b850101111561169b57600080fd5b60208301975080965050505060408701359250606087013591506116c1608088016115e3565b90509295509295509295565b6000602082840312156116df57600080fd5b5035919050565b634e487b7160e01b600052602160045260246000fd5b6020810160038310611710576117106116e6565b91905290565b6000806040838503121561172957600080fd5b8235915060208301356003811061173f57600080fd5b809150509250929050565b600081518084526020808501945080840160005b838110156117835781516001600160a01b03168752958201959082019060010161175e565b509495945050505050565b6004811061179e5761179e6116e6565b9052565b6020815281516020820152600060208301516101608060408501526117cb61018085018361174a565b91506040850151606085015260608501516080850152608085015160a085015260a08501516117fd60c086018261178e565b5060c085015160e085810191909152850151610100808601919091528501516101208086019190915285015161014080860191909152909401516001600160a01b03169390920192909252919050565b60008060006060848603121561186257600080fd5b505081359360208301359350604090920135919050565b60006020828403121561188b57600080fd5b611894826115e3565b9392505050565b634e487b7160e01b600052601160045260246000fd5b808201808211156104ad576104ad61189b565b634e487b7160e01b600052603260045260246000fd5b6000600182016118ec576118ec61189b565b5060010190565b60a0808252810186905260008760c08301825b89811015611934576001600160a01b0361191f846115e3565b16825260209283019290910190600101611906565b506020840197909752505060408101939093526001600160a01b0391909116606083015260809091015292915050565b80820281158282048414176104ad576104ad61189b565b60008261199857634e487b7160e01b600052601260045260246000fd5b500490565b818103818111156104ad576104ad61189b565b606081016119be828661178e565b60208201939093526040015291905056fea2646970667358221220303cff8d5f9a06391a26a21793868472ee228fc9a74b880a3df41da4ce7354dc64736f6c63430008140033",
  "linkReferences": {},
  "deployedLinkReferences": {}
}