{
  "_format": "hh-sol-artifact-1",
  "contractName": "ClawTrustRepAdapter",
  "sourceName": "contracts/ClawTrustRepAdapter.sol",
  "abi": [
    {
      "inputs": [
        {
          "internalType": "address",
          "name": "_reputationRegistry",
          "type": "address"
        }
      ],
      "stateMutability": "nonpayable",
      "type": "constructor"
    },
    {
      "inputs": [],
      "name": "EnforcedPause",
      "type": "error"
    },
    {
      "inputs": [],
      "name": "ExpectedPause",
      "type": "error"
    },
    {
      "inputs": [],
      "name": "InsufficientOracles",
      "type": "error"
    },
    {
      "inputs": [],
      "name": "InvalidAddress",
      "type": "error"
    },
    {
      "inputs": [],
      "name": "InvalidProof",
      "type": "error"
    },
    {
      "inputs": [],
      "name": "InvalidScore",
      "type": "error"
    },
    {
      "inputs": [],
      "name": "NotAuthorizedOracle",
      "type": "error"
    },
    {
      "inputs": [
        {
          "internalType": "address",
          "name": "owner",
          "type": "address"
        }
      ],
      "name": "OwnableInvalidOwner",
      "type": "error"
    },
    {
      "inputs": [
        {
          "internalType": "address",
          "name": "account",
          "type": "address"
        }
      ],
      "name": "OwnableUnauthorizedAccount",
      "type": "error"
    },
    {
      "inputs": [],
      "name": "ReentrancyGuardReentrantCall",
      "type": "error"
    },
    {
      "inputs": [],
      "name": "ScoreOutOfBounds",
      "type": "error"
    },
    {
      "inputs": [],
      "name": "UpdateTooSoon",
      "type": "error"
    },
    {
      "anonymous": false,
      "inputs": [
        {
          "indexed": true,
          "internalType": "address",
          "name": "oracle",
          "type": "address"
        },
        {
          "indexed": true,
          "internalType": "address",
          "name": "to",
          "type": "address"
        },
        {
          "indexed": false,
          "internalType": "int256",
          "name": "score",
          "type": "int256"
        },
        {
          "indexed": false,
          "internalType": "bytes32",
          "name": "proofHash",
          "type": "bytes32"
        }
      ],
      "name": "FeedbackSubmitted",
      "type": "event"
    },
    {
      "anonymous": false,
      "inputs": [
        {
          "indexed": true,
          "internalType": "address",
          "name": "agent",
          "type": "address"
        },
        {
          "indexed": false,
          "internalType": "uint256",
          "name": "fusedScore",
          "type": "uint256"
        },
        {
          "indexed": false,
          "internalType": "uint256",
          "name": "onChainScore",
          "type": "uint256"
        },
        {
          "indexed": false,
          "internalType": "uint256",
          "name": "moltbookKarma",
          "type": "uint256"
        },
        {
          "indexed": false,
          "internalType": "bytes32",
          "name": "proofHash",
          "type": "bytes32"
        }
      ],
      "name": "FusedScoreUpdated",
      "type": "event"
    },
    {
      "anonymous": false,
      "inputs": [
        {
          "indexed": false,
          "internalType": "uint256",
          "name": "oldCount",
          "type": "uint256"
        },
        {
          "indexed": false,
          "internalType": "uint256",
          "name": "newCount",
          "type": "uint256"
        }
      ],
      "name": "MinOracleCountUpdated",
      "type": "event"
    },
    {
      "anonymous": false,
      "inputs": [
        {
          "indexed": true,
          "internalType": "address",
          "name": "oracle",
          "type": "address"
        }
      ],
      "name": "OracleAuthorized",
      "type": "event"
    },
    {
      "anonymous": false,
      "inputs": [
        {
          "indexed": true,
          "internalType": "address",
          "name": "oracle",
          "type": "address"
        }
      ],
      "name": "OracleRevoked",
      "type": "event"
    },
    {
      "anonymous": false,
      "inputs": [
        {
          "indexed": true,
          "internalType": "address",
          "name": "previousOwner",
          "type": "address"
        },
        {
          "indexed": true,
          "internalType": "address",
          "name": "newOwner",
          "type": "address"
        }
      ],
      "name": "OwnershipTransferred",
      "type": "event"
    },
    {
      "anonymous": false,
      "inputs": [
        {
          "indexed": false,
          "internalType": "address",
          "name": "account",
          "type": "address"
        }
      ],
      "name": "Paused",
      "type": "event"
    },
    {
      "anonymous": false,
      "inputs": [
        {
          "indexed": true,
          "internalType": "address",
          "name": "agent",
          "type": "address"
        },
        {
          "indexed": false,
          "internalType": "bytes",
          "name": "reason",
          "type": "bytes"
        }
      ],
      "name": "ReputationRegistryCallFailed",
      "type": "event"
    },
    {
      "anonymous": false,
      "inputs": [
        {
          "indexed": false,
          "internalType": "address",
          "name": "account",
          "type": "address"
        }
      ],
      "name": "Unpaused",
      "type": "event"
    },
    {
      "inputs": [],
      "name": "MAX_MOLTBOOK_KARMA",
      "outputs": [
        {
          "internalType": "uint256",
          "name": "",
          "type": "uint256"
        }
      ],
      "stateMutability": "view",
      "type": "function"
    },
    {
      "inputs": [],
      "name": "MAX_ON_CHAIN_SCORE",
      "outputs": [
        {
          "internalType": "uint256",
          "name": "",
          "type": "uint256"
        }
      ],
      "stateMutability": "view",
      "type": "function"
    },
    {
      "inputs": [],
      "name": "MAX_SCORE",
      "outputs": [
        {
          "internalType": "uint256",
          "name": "",
          "type": "uint256"
        }
      ],
      "stateMutability": "view",
      "type": "function"
    },
    {
      "inputs": [],
      "name": "MOLTBOOK_WEIGHT",
      "outputs": [
        {
          "internalType": "uint256",
          "name": "",
          "type": "uint256"
        }
      ],
      "stateMutability": "view",
      "type": "function"
    },
    {
      "inputs": [],
      "name": "ON_CHAIN_WEIGHT",
      "outputs": [
        {
          "internalType": "uint256",
          "name": "",
          "type": "uint256"
        }
      ],
      "stateMutability": "view",
      "type": "function"
    },
    {
      "inputs": [],
      "name": "UPDATE_COOLDOWN",
      "outputs": [
        {
          "internalType": "uint256",
          "name": "",
          "type": "uint256"
        }
      ],
      "stateMutability": "view",
      "type": "function"
    },
    {
      "inputs": [],
      "name": "WEIGHT_DENOMINATOR",
      "outputs": [
        {
          "internalType": "uint256",
          "name": "",
          "type": "uint256"
        }
      ],
      "stateMutability": "view",
      "type": "function"
    },
    {
      "inputs": [
        {
          "internalType": "address",
          "name": "oracle",
          "type": "address"
        }
      ],
      "name": "authorizeOracle",
      "outputs": [],
      "stateMutability": "nonpayable",
      "type": "function"
    },
    {
      "inputs": [
        {
          "internalType": "address",
          "name": "",
          "type": "address"
        }
      ],
      "name": "authorizedOracles",
      "outputs": [
        {
          "internalType": "bool",
          "name": "",
          "type": "bool"
        }
      ],
      "stateMutability": "view",
      "type": "function"
    },
    {
      "inputs": [
        {
          "internalType": "uint256",
          "name": "onChainScore",
          "type": "uint256"
        },
        {
          "internalType": "uint256",
          "name": "moltbookKarma",
          "type": "uint256"
        }
      ],
      "name": "computeFusedScore",
      "outputs": [
        {
          "internalType": "uint256",
          "name": "",
          "type": "uint256"
        }
      ],
      "stateMutability": "pure",
      "type": "function"
    },
    {
      "inputs": [
        {
          "internalType": "address",
          "name": "",
          "type": "address"
        }
      ],
      "name": "fusedScores",
      "outputs": [
        {
          "internalType": "uint256",
          "name": "onChainScore",
          "type": "uint256"
        },
        {
          "internalType": "uint256",
          "name": "moltbookKarma",
          "type": "uint256"
        },
        {
          "internalType": "uint256",
          "name": "fusedScore",
          "type": "uint256"
        },
        {
          "internalType": "uint256",
          "name": "timestamp",
          "type": "uint256"
        },
        {
          "internalType": "bytes32",
          "name": "proofHash",
          "type": "bytes32"
        }
      ],
      "stateMutability": "view",
      "type": "function"
    },
    {
      "inputs": [
        {
          "internalType": "address",
          "name": "agent",
          "type": "address"
        }
      ],
      "name": "getFusedScore",
      "outputs": [
        {
          "components": [
            {
              "internalType": "uint256",
              "name": "onChainScore",
              "type": "uint256"
            },
            {
              "internalType": "uint256",
              "name": "moltbookKarma",
              "type": "uint256"
            },
            {
              "internalType": "uint256",
              "name": "fusedScore",
              "type": "uint256"
            },
            {
              "internalType": "uint256",
              "name": "timestamp",
              "type": "uint256"
            },
            {
              "internalType": "bytes32",
              "name": "proofHash",
              "type": "bytes32"
            }
          ],
          "internalType": "struct ClawTrustRepAdapter.FusedScore",
          "name": "",
          "type": "tuple"
        }
      ],
      "stateMutability": "view",
      "type": "function"
    },
    {
      "inputs": [
        {
          "internalType": "address",
          "name": "agent",
          "type": "address"
        },
        {
          "internalType": "uint256",
          "name": "offset",
          "type": "uint256"
        },
        {
          "internalType": "uint256",
          "name": "limit",
          "type": "uint256"
        }
      ],
      "name": "getScoreHistory",
      "outputs": [
        {
          "components": [
            {
              "internalType": "uint256",
              "name": "fusedScore",
              "type": "uint256"
            },
            {
              "internalType": "uint256",
              "name": "timestamp",
              "type": "uint256"
            }
          ],
          "internalType": "struct ClawTrustRepAdapter.ScoreHistory[]",
          "name": "",
          "type": "tuple[]"
        }
      ],
      "stateMutability": "view",
      "type": "function"
    },
    {
      "inputs": [
        {
          "internalType": "address",
          "name": "",
          "type": "address"
        }
      ],
      "name": "lastUpdateTime",
      "outputs": [
        {
          "internalType": "uint256",
          "name": "",
          "type": "uint256"
        }
      ],
      "stateMutability": "view",
      "type": "function"
    },
    {
      "inputs": [],
      "name": "minOracleCount",
      "outputs": [
        {
          "internalType": "uint256",
          "name": "",
          "type": "uint256"
        }
      ],
      "stateMutability": "view",
      "type": "function"
    },
    {
      "inputs": [],
      "name": "oracleCount",
      "outputs": [
        {
          "internalType": "uint256",
          "name": "",
          "type": "uint256"
        }
      ],
      "stateMutability": "view",
      "type": "function"
    },
    {
      "inputs": [],
      "name": "owner",
      "outputs": [
        {
          "internalType": "address",
          "name": "",
          "type": "address"
        }
      ],
      "stateMutability": "view",
      "type": "function"
    },
    {
      "inputs": [],
      "name": "pause",
      "outputs": [],
      "stateMutability": "nonpayable",
      "type": "function"
    },
    {
      "inputs": [],
      "name": "paused",
      "outputs": [
        {
          "internalType": "bool",
          "name": "",
          "type": "bool"
        }
      ],
      "stateMutability": "view",
      "type": "function"
    },
    {
      "inputs": [],
      "name": "renounceOwnership",
      "outputs": [],
      "stateMutability": "nonpayable",
      "type": "function"
    },
    {
      "inputs": [],
      "name": "reputationRegistry",
      "outputs": [
        {
          "internalType": "address",
          "name": "",
          "type": "address"
        }
      ],
      "stateMutability": "view",
      "type": "function"
    },
    {
      "inputs": [
        {
          "internalType": "address",
          "name": "oracle",
          "type": "address"
        }
      ],
      "name": "revokeOracle",
      "outputs": [],
      "stateMutability": "nonpayable",
      "type": "function"
    },
    {
      "inputs": [
        {
          "internalType": "address",
          "name": "",
          "type": "address"
        },
        {
          "internalType": "uint256",
          "name": "",
          "type": "uint256"
        }
      ],
      "name": "scoreHistory",
      "outputs": [
        {
          "internalType": "uint256",
          "name": "fusedScore",
          "type": "uint256"
        },
        {
          "internalType": "uint256",
          "name": "timestamp",
          "type": "uint256"
        }
      ],
      "stateMutability": "view",
      "type": "function"
    },
    {
      "inputs": [
        {
          "internalType": "uint256",
          "name": "_minCount",
          "type": "uint256"
        }
      ],
      "name": "setMinOracleCount",
      "outputs": [],
      "stateMutability": "nonpayable",
      "type": "function"
    },
    {
      "inputs": [
        {
          "internalType": "address",
          "name": "to",
          "type": "address"
        },
        {
          "internalType": "int256",
          "name": "score",
          "type": "int256"
        },
        {
          "internalType": "string[]",
          "name": "tags",
          "type": "string[]"
        },
        {
          "internalType": "string",
          "name": "proofUri",
          "type": "string"
        }
      ],
      "name": "submitFeedbackToRegistry",
      "outputs": [],
      "stateMutability": "nonpayable",
      "type": "function"
    },
    {
      "inputs": [
        {
          "internalType": "address",
          "name": "agentAddress",
          "type": "address"
        },
        {
          "internalType": "uint256",
          "name": "onChainScore",
          "type": "uint256"
        },
        {
          "internalType": "uint256",
          "name": "moltbookKarma",
          "type": "uint256"
        },
        {
          "internalType": "string[]",
          "name": "tags",
          "type": "string[]"
        },
        {
          "internalType": "string",
          "name": "proofUri",
          "type": "string"
        }
      ],
      "name": "submitFusedFeedback",
      "outputs": [],
      "stateMutability": "nonpayable",
      "type": "function"
    },
    {
      "inputs": [
        {
          "internalType": "address",
          "name": "newOwner",
          "type": "address"
        }
      ],
      "name": "transferOwnership",
      "outputs": [],
      "stateMutability": "nonpayable",
      "type": "function"
    },
    {
      "inputs": [],
      "name": "unpause",
      "outputs": [],
      "stateMutability": "nonpayable",
      "type": "function"
    },
    {
      "inputs": [
        {
          "internalType": "address",
          "name": "agent",
          "type": "address"
        },
        {
          "internalType": "uint256",
          "name": "onChainScore",
          "type": "uint256"
        },
        {
          "internalType": "uint256",
          "name": "moltbookKarma",
          "type": "uint256"
        },
        {
          "internalType": "string",
          "name": "proofUri",
          "type": "string"
        }
      ],
      "name": "updateFusedScore",
      "outputs": [],
      "stateMutability": "nonpayable",
      "type": "function"
    },
    {
      "inputs": [
        {
          "internalType": "address[]",
          "name": "agents",
          "type": "address[]"
        },
        {
          "internalType": "uint256[]",
          "name": "onChainScores",
          "type": "uint256[]"
        },
        {
          "internalType": "uint256[]",
          "name": "moltbookKarmas",
          "type": "uint256[]"
        },
        {
          "internalType": "string[]",
          "name": "proofUris",
          "type": "string[]"
        }
      ],
      "name": "updateFusedScoreBatch",
      "outputs": [],
      "stateMutability": "nonpayable",
      "type": "function"
    },
    {
      "inputs": [
        {
          "internalType": "address",
          "name": "agent",
          "type": "address"
        },
        {
          "internalType": "string",
          "name": "proofUri",
          "type": "string"
        }
      ],
      "name": "verifyProof",
      "outputs": [
        {
          "internalType": "bool",
          "name": "",
          "type": "bool"
        }
      ],
      "stateMutability": "view",
      "type": "function"
    }
  ],
  "bytecode": "0x60a060405260016006553480156200001657600080fd5b5060405162001fba38038062001fba8339810160408190526200003991620000fa565b33806200006057604051631e4fbdf760e01b81526000600482015260240160405180910390fd5b6200006b81620000aa565b50600180556001600160a01b038116620000985760405163e6c4247b60e01b815260040160405180910390fd5b6001600160a01b03166080526200012c565b600080546001600160a01b038381166001600160a01b0319831681178455604051919092169283917f8be0079c531659141344cd1fd0a4f28419497f9722a3daafe3b4186f6b6457e09190a35050565b6000602082840312156200010d57600080fd5b81516001600160a01b03811681146200012557600080fd5b9392505050565b608051611e64620001566000396000818161045c015281816107380152610a050152611e646000f3fe608060405234801561001057600080fd5b50600436106101e55760003560e01c806361c992a31161010f578063b242f17c116100a2578063db7a584b11610071578063db7a584b1461047e578063e66b3e761461049e578063f2fde38b146104b1578063fc66e2ba146104c457600080fd5b8063b242f17c14610394578063bab35e63146103e9578063bcb3d4e5146103f2578063c8db44e31461045757600080fd5b8063809b18d5116100de578063809b18d51461024d5780638456cb591461035e5780638da5cb5b146103665780639d5739e71461038b57600080fd5b806361c992a3146102f857806362838da61461031b578063691845e41461032e578063715018a61461035657600080fd5b8063305f6821116101875780634dd5de4d116101565780634dd5de4d146102b75780635983e6b0146102ca5780635c975abb146102dd578063613d8fcc146102ef57600080fd5b8063305f68211461028b57806339280c77146102945780633ecd7eda1461029c5780633f4ba83a146102af57600080fd5b806325d153e1116101c357806325d153e11461022557806327ff62231461024d5780632ce9aead146102635780632f8386c51461028357600080fd5b806304869934146101ea5780630f13b763146101ff578063211cf83c14610212575b600080fd5b6101fd6101f836600461180f565b6104cd565b005b6101fd61020d3660046118a3565b61088e565b6101fd6102203660046118be565b61094b565b610238610233366004611948565b610b3e565b60405190151581526020015b60405180910390f35b610255606481565b604051908152602001610244565b6102556102713660046118a3565b60056020526000908152604090205481565b610255602881565b61025561271081565b610255603c81565b6101fd6102aa36600461199b565b610b84565b6101fd610c15565b6101fd6102c53660046119b4565b610c27565b6101fd6102d83660046118a3565b610e94565b600054600160a01b900460ff16610238565b61025560075481565b6102386103063660046118a3565b60046020526000908152604090205460ff1681565b610255610329366004611a1c565b610f4b565b61034161033c366004611a3e565b611017565b60408051928352602083019190915201610244565b6101fd611053565b6101fd611065565b6000546001600160a01b03165b6040516001600160a01b039091168152602001610244565b610255610e1081565b6103a76103a23660046118a3565b611075565b6040516102449190600060a082019050825182526020830151602083015260408301516040830152606083015160608301526080830151608083015292915050565b61025560065481565b61042f6104003660046118a3565b600260208190526000918252604090912080546001820154928201546003830154600490930154919392909185565b604080519586526020860194909452928401919091526060830152608082015260a001610244565b6103737f000000000000000000000000000000000000000000000000000000000000000081565b61049161048c366004611a68565b6110ff565b6040516102449190611a9b565b6101fd6104ac366004611aea565b611285565b6101fd6104bf3660046118a3565b611591565b6102556103e881565b3360009081526004602052604090205460ff166104fd57604051630b7b9fc760e01b815260040160405180910390fd5b6105056115d1565b6001600160a01b038716600090815260056020526040902054879061052d90610e1090611bc4565b42101561054d57604051630c8b223160e41b815260040160405180910390fd5b6105556115fc565b6001600160a01b03881661057c5760405163e6c4247b60e01b815260040160405180910390fd5b600082900361059e576040516309bde33960e01b815260040160405180910390fd5b60006105aa8888610f4b565b9050600084846040516105be929190611bd7565b604051809103902090506040518060a001604052808a815260200189815260200183815260200142815260200182815250600260008c6001600160a01b03166001600160a01b031681526020019081526020016000206000820151816000015560208201518160010155604082015181600201556060820151816003015560808201518160040155905050600360008b6001600160a01b03166001600160a01b03168152602001908152602001600020604051806040016040528084815260200142815250908060018154018082558091505060019003906000526020600020906002020160009091909190915060008201518160000155602082015181600101555050896001600160a01b03167f3b2b0d9dd0262a2cd5b7878f4cac2d6261083bbea63242f5b6dcf5f8f60e9356838b8b85604051610717949392919093845260208401929092526040830152606082015260800190565b60405180910390a2604051632cd9ed5b60e01b815282906001600160a01b037f00000000000000000000000000000000000000000000000000000000000000001690632cd9ed5b90610777908e9085908d908d908d908d90600401611c10565b600060405180830381600087803b15801561079157600080fd5b505af19250505080156107a2575060015b610819573d8080156107d0576040519150601f19603f3d011682016040523d82523d6000602084013e6107d5565b606091505b508b6001600160a01b03167f623b0c7e2c08c579bb33a7fb90c59aa3257ff1df0688e50cf454495ec18b6e038260405161080f9190611cdb565b60405180910390a2505b60408051828152602081018490526001600160a01b038d169133917fd2299a4b247674dbbb1cf894ce1ac82b9be75cf464334725381d815a000ad163910160405180910390a350505061086b60018055565b6001600160a01b0316600090815260056020526040902042905550505050505050565b610896611626565b6001600160a01b0381166108bd5760405163e6c4247b60e01b815260040160405180910390fd5b6001600160a01b03811660009081526004602052604090205460ff16610948576001600160a01b0381166000908152600460205260408120805460ff19166001179055600780549161090e83611d29565b90915550506040516001600160a01b038216907f5a7a3f71a35f5e2589980d29d1c6d8c75e39657751190874081e55208bae24b790600090a25b50565b3360009081526004602052604090205460ff1661097b57604051630b7b9fc760e01b815260040160405180910390fd5b6109836115d1565b61098b6115fc565b6001600160a01b0386166109b25760405163e6c4247b60e01b815260040160405180910390fd5b60008190036109d4576040516309bde33960e01b815260040160405180910390fd5b600082826040516109e6929190611bd7565b604051908190038120632cd9ed5b60e01b825291506001600160a01b037f00000000000000000000000000000000000000000000000000000000000000001690632cd9ed5b90610a44908a908a908a908a908a908a90600401611c10565b600060405180830381600087803b158015610a5e57600080fd5b505af1925050508015610a6f575060015b610ae6573d808015610a9d576040519150601f19603f3d011682016040523d82523d6000602084013e610aa2565b606091505b50876001600160a01b03167f623b0c7e2c08c579bb33a7fb90c59aa3257ff1df0688e50cf454495ec18b6e0382604051610adc9190611cdb565b60405180910390a2505b60408051878152602081018390526001600160a01b0389169133917fd2299a4b247674dbbb1cf894ce1ac82b9be75cf464334725381d815a000ad163910160405180910390a350610b3660018055565b505050505050565b6000808383604051610b51929190611bd7565b60408051918290039091206001600160a01b038716600090815260026020529190912060040154149150505b9392505050565b610b8c611626565b80600003610bad57604051631556136560e01b815260040160405180910390fd5b600754811115610bd05760405163d0c0a93b60e01b815260040160405180910390fd5b600680549082905560408051828152602081018490527f565080df09e48108d637f33f699586eed7ff5c02f502e10ec88c3dbaf2c5439f910160405180910390a15050565b610c1d611626565b610c25611653565b565b3360009081526004602052604090205460ff16610c5757604051630b7b9fc760e01b815260040160405180910390fd5b610c5f6115d1565b6001600160a01b0385166000908152600560205260409020548590610c8790610e1090611bc4565b421015610ca757604051630c8b223160e41b815260040160405180910390fd5b6001600160a01b038616610cce5760405163e6c4247b60e01b815260040160405180910390fd5b6000829003610cf0576040516309bde33960e01b815260040160405180910390fd5b6000610cfc8686610f4b565b905060008484604051610d10929190611bd7565b604051809103902090506040518060a0016040528088815260200187815260200183815260200142815260200182815250600260008a6001600160a01b03166001600160a01b03168152602001908152602001600020600082015181600001556020820151816001015560408201518160020155606082015181600301556080820151816004015590505060036000896001600160a01b03166001600160a01b03168152602001908152602001600020604051806040016040528084815260200142815250908060018154018082558091505060019003906000526020600020906002020160009091909190915060008201518160000155602082015181600101555050876001600160a01b03167f3b2b0d9dd0262a2cd5b7878f4cac2d6261083bbea63242f5b6dcf5f8f60e935683898985604051610e69949392919093845260208401929092526040830152606082015260800190565b60405180910390a250506001600160a01b031660009081526005602052604090204290555050505050565b610e9c611626565b6001600160a01b03811660009081526004602052604090205460ff16156109485760065460075411610ee15760405163d0c0a93b60e01b815260040160405180910390fd5b6001600160a01b0381166000908152600460205260408120805460ff191690556007805491610f0f83611d42565b90915550506040516001600160a01b038216907f3c9c4af7c4c66de2ffc68abfa4e0d275fbce92f248473bca0d6787dc8caf8e3190600090a250565b60006103e8831115610f705760405163ed2008a560e01b815260040160405180910390fd5b612710821115610f935760405163ed2008a560e01b815260040160405180910390fd5b60006103e8610fa3856064611d59565b610fad9190611d70565b90506000612710610fbf856064611d59565b610fc99190611d70565b905060006064610fda836028611d59565b610fe585603c611d59565b610fef9190611bc4565b610ff99190611d70565b9050606481111561100c5761100c611d92565b925050505b92915050565b6003602052816000526040600020818154811061103357600080fd5b600091825260209091206002909102018054600190910154909250905082565b61105b611626565b610c2560006116a8565b61106d611626565b610c256116f8565b6110aa6040518060a0016040528060008152602001600081526020016000815260200160008152602001600080191681525090565b506001600160a01b0316600090815260026020818152604092839020835160a0810185528154815260018201549281019290925291820154928101929092526003810154606083015260040154608082015290565b6001600160a01b038316600090815260036020526040902080546060919080851061116b576040805160008082526020820190925290611161565b604080518082019091526000808252602082015281526020019060019003908161113a5790505b5092505050610b7d565b60006111778587611bc4565b9050818111156111845750805b60006111908783611dbe565b905060008167ffffffffffffffff8111156111ad576111ad611da8565b6040519080825280602002602001820160405280156111f257816020015b60408051808201909152600080825260208201528152602001906001900390816111cb5790505b50905060005b82811015611278578561120b828b611bc4565b8154811061121b5761121b611dd1565b90600052602060002090600202016040518060400160405290816000820154815260200160018201548152505082828151811061125a5761125a611dd1565b6020026020010181905250808061127090611d29565b9150506111f8565b5098975050505050505050565b3360009081526004602052604090205460ff166112b557604051630b7b9fc760e01b815260040160405180910390fd5b6112bd6115d1565b8685811415806112cd5750808414155b806112d85750808214155b156112f657604051631556136560e01b815260040160405180910390fd5b60005b818110156115855760008a8a8381811061131557611315611dd1565b905060200201602081019061132a91906118a3565b90506001600160a01b0381166113535760405163e6c4247b60e01b815260040160405180910390fd5b6001600160a01b03811660009081526005602052604090205461137990610e1090611bc4565b4210156113865750611573565b60006113c28a8a8581811061139d5761139d611dd1565b905060200201358989868181106113b6576113b6611dd1565b90506020020135610f4b565b905060008686858181106113d8576113d8611dd1565b90506020028101906113ea9190611de7565b6040516113f8929190611bd7565b604051809103902090506040518060a001604052808c8c8781811061141f5761141f611dd1565b9050602002013581526020018a8a8781811061143d5761143d611dd1565b6020908102929092013583525081810185905242604080840182905260609384018690526001600160a01b038816600081815260028086528382208851815588870151600180830191909155898601518284015597890151600380830191909155608090990151600490910155968552828120835180850185528a81528087018681528254808a018455928452878420915192909902019081559651969095019590955584845260059092529120557f3b2b0d9dd0262a2cd5b7878f4cac2d6261083bbea63242f5b6dcf5f8f60e9356838d8d8881811061152057611520611dd1565b905060200201358c8c8981811061153957611539611dd1565b9050602002013585604051611567949392919093845260208401929092526040830152606082015260800190565b60405180910390a25050505b8061157d81611d29565b9150506112f9565b50505050505050505050565b611599611626565b6001600160a01b0381166115c857604051631e4fbdf760e01b8152600060048201526024015b60405180910390fd5b610948816116a8565b600054600160a01b900460ff1615610c255760405163d93c066560e01b815260040160405180910390fd5b60026001540361161f57604051633ee5aeb560e01b815260040160405180910390fd5b6002600155565b6000546001600160a01b03163314610c255760405163118cdaa760e01b81523360048201526024016115bf565b61165b61173b565b6000805460ff60a01b191690557f5db9ee0a495bf2e6ff9c91a7834c1ba4fdd244a5e8aa4e537bd38aeae4b073aa335b6040516001600160a01b03909116815260200160405180910390a1565b600080546001600160a01b038381166001600160a01b0319831681178455604051919092169283917f8be0079c531659141344cd1fd0a4f28419497f9722a3daafe3b4186f6b6457e09190a35050565b6117006115d1565b6000805460ff60a01b1916600160a01b1790557f62e78cea01bee320cd4e420270b5ea74000d11b0c9f74754ebdbfc544b05a25861168b3390565b600054600160a01b900460ff16610c2557604051638dfc202b60e01b815260040160405180910390fd5b80356001600160a01b038116811461177c57600080fd5b919050565b60008083601f84011261179357600080fd5b50813567ffffffffffffffff8111156117ab57600080fd5b6020830191508360208260051b85010111156117c657600080fd5b9250929050565b60008083601f8401126117df57600080fd5b50813567ffffffffffffffff8111156117f757600080fd5b6020830191508360208285010111156117c657600080fd5b600080600080600080600060a0888a03121561182a57600080fd5b61183388611765565b96506020880135955060408801359450606088013567ffffffffffffffff8082111561185e57600080fd5b61186a8b838c01611781565b909650945060808a013591508082111561188357600080fd5b506118908a828b016117cd565b989b979a50959850939692959293505050565b6000602082840312156118b557600080fd5b610b7d82611765565b600080600080600080608087890312156118d757600080fd5b6118e087611765565b955060208701359450604087013567ffffffffffffffff8082111561190457600080fd5b6119108a838b01611781565b9096509450606089013591508082111561192957600080fd5b5061193689828a016117cd565b979a9699509497509295939492505050565b60008060006040848603121561195d57600080fd5b61196684611765565b9250602084013567ffffffffffffffff81111561198257600080fd5b61198e868287016117cd565b9497909650939450505050565b6000602082840312156119ad57600080fd5b5035919050565b6000806000806000608086880312156119cc57600080fd5b6119d586611765565b94506020860135935060408601359250606086013567ffffffffffffffff8111156119ff57600080fd5b611a0b888289016117cd565b969995985093965092949392505050565b60008060408385031215611a2f57600080fd5b50508035926020909101359150565b60008060408385031215611a5157600080fd5b611a5a83611765565b946020939093013593505050565b600080600060608486031215611a7d57600080fd5b611a8684611765565b95602085013595506040909401359392505050565b602080825282518282018190526000919060409081850190868401855b82811015611add57815180518552860151868501529284019290850190600101611ab8565b5091979650505050505050565b6000806000806000806000806080898b031215611b0657600080fd5b883567ffffffffffffffff80821115611b1e57600080fd5b611b2a8c838d01611781565b909a50985060208b0135915080821115611b4357600080fd5b611b4f8c838d01611781565b909850965060408b0135915080821115611b6857600080fd5b611b748c838d01611781565b909650945060608b0135915080821115611b8d57600080fd5b50611b9a8b828c01611781565b999c989b5096995094979396929594505050565b634e487b7160e01b600052601160045260246000fd5b8082018082111561101157611011611bae565b8183823760009101908152919050565b81835281816020850137506000828201602090810191909152601f909101601f19169091010190565b6001600160a01b03871681526020808201879052608060408301819052820185905260009060a0600587901b840181019190840188845b89811015611cb757868503609f190183528135368c9003601e19018112611c6d57600080fd5b8b01848101903567ffffffffffffffff811115611c8957600080fd5b803603821315611c9857600080fd5b611ca3878284611be7565b965050509183019190830190600101611c47565b505050508281036060840152611cce818587611be7565b9998505050505050505050565b600060208083528351808285015260005b81811015611d0857858101830151858201604001528201611cec565b506000604082860101526040601f19601f8301168501019250505092915050565b600060018201611d3b57611d3b611bae565b5060010190565b600081611d5157611d51611bae565b506000190190565b808202811582820484141761101157611011611bae565b600082611d8d57634e487b7160e01b600052601260045260246000fd5b500490565b634e487b7160e01b600052600160045260246000fd5b634e487b7160e01b600052604160045260246000fd5b8181038181111561101157611011611bae565b634e487b7160e01b600052603260045260246000fd5b6000808335601e19843603018112611dfe57600080fd5b83018035915067ffffffffffffffff821115611e1957600080fd5b6020019150368190038213156117c657600080fdfea2646970667358221220a5edfbc8df50b7c6b45238b87dcaff3b4e48a763eaa5b9fc245bba19e3baa9eb64736f6c63430008140033",
  "linkReferences": {},
  "deployedLinkReferences": {}
}